:020000040800F2
:1000000000500020711D0008D51B0008DB1B0008F4
:10001000E11B0008E71B0008ED1B000800000000C2
:10002000000000000000000000000000F31B0008BA
:10003000FF1B0008000000000B1C0008171C000834
:10004000B91D0008B91D0008B91D0008B91D000838
:10005000B91D0008B91D0008B91D0008B91D000828
:10006000B91D0008B91D0008B91D0008B91D000818
:10007000B91D0008B91D0008B91D0008B91D000808
:10008000B91D0008B91D0008B91D0008B91D0008F8
:10009000B91D0008B91D0008B91D0008B91D0008E8
:1000A000B91D0008B91D0008B91D0008B91D0008D8
:1000B000251C0008B91D0008B91D0008B91D00085D
:1000C000B91D0008B91D0008B91D0008B91D0008B8
:1000D000B91D0008B91D0008B91D0008B91D0008A8
:1000E000B91D0008B91D0008B91D00080000000076
:1000F0000000000000000000000000000000000000
:0C01000000000000000000005FF808F1A3
:10010C0010B5054C237833B9044B13B10448AFF345
:10011C0000800123237010BD80000020000000002F
:10012C001848000808B5034B1BB103490348AFF34B
:10013C00008008BD00000000840000201848000862
:10014C0080B588B000AF00F057FF0346012B40F09C
:10015C00A080524B1B68012B26D107F1100350498C
:10016C00184603F019FF3B464E49184603F014FF9E
:10017C000021012000F0EFFD3B46184600F0D6FDB3
:10018C000021022000F0E7FD07F11003184600F0F3
:10019C00CDFD454B08221A60444B08221A603F4B98
:1001AC0001221A6001F0CCF83C4B1B68022B26D1C3
:1001BC003F4B1B683F4A13603E4B1A683E4B1B6813
:1001CC009A4205DD3B4B1A683C4B1B689A4207DC94
:1001DC00394B1A68394B1B681344364A136006E0D6
:1001EC00344B1A68354B1B68D31A334A1360314BA6
:1001FC001B68334A1360304B1B68324A1360274B21
:10020C001B68032B20D12A4B1B682B4A1360294BEC
:10021C001A68294B1B689A4207DC284B1A68264B34
:10022C001B681344234A136006E0224B1A68224BC6
:10023C001B68D31A214A13601E4B1B68204A13609B
:10024C001D4B1B681F4A1360144B1B68042B20D1D9
:10025C00174B1B68194A1360164B1A68174B1B680F
:10026C009A4207DC154B1A68134B1B681344114A4E
:10027C00136006E00F4B1A68104B1B68D31A0E4A1A
:10028C0013600C4B1B680E4A13600B4B1B680D4A1A
:10029C00136000BF2037BD4680BD00BFC4000020E6
:1002AC003048000840480008B0000020B40000208E
:1002BC00C8000020000000200400002008000020DE
:1002CC00B8000020BC00002080B500AF144B1B68A8
:1002DC00012B02D1134B00221A60114B1B68022B0D
:1002EC0004D1114B05221A6001F02AF80C4B1B6843
:1002FC00032B07D10D4B00221A600B4B06221A6000
:10030C0001F01EF8064B1B68042B07D1084B00228A
:10031C001A60054B07221A6001F012F800BF80BD6D
:10032C00C4000020A8000020B0000020A000002085
:10033C00A400002080B500AF144B1B68012B02D128
:10034C00134B00221A60114B1B68022B04D1114B6A
:10035C0005221A6000F0F4FF0C4B1B68032B07D12D
:10036C000D4B00221A600B4B06221A6000F0E8FFBE
:10037C00064B1B68042B07D1084B00221A60054B57
:10038C0007221A6000F0DCFF00BF80BDC400002013
:10039C00A8000020B4000020A0000020A400002031
:1003AC0080B588B000AF204B9B68012B0ED11F4B42
:1003BC001B68013B1D4A13601D4B1B68013B1C4A0B
:1003CC0013604FF47A71022001F06CFC164BDB6861
:1003DC00012B24D1154B1A683B461649184603F0DD
:1003EC00DBFD134B1A6807F110031349184603F091
:1003FC00D3FD0021012000F0AEFC3B46184600F076
:10040C0095FC0021022000F0A6FC07F11003184611
:10041C0000F08CFC4FF47A71032001F043FC00BF18
:10042C002037BD4680BD00BF10020020B800002060
:10043C00BC0000204C4800085C48000880B588B01F
:10044C0000AF164B9B69012B23D1154B1A6807F192
:10045C0010031449184603F09FFD134B1A683B46D2
:10046C001249184603F098FD0021012000F073FC9E
:10047C003B46184600F05AFC0021022000F06BFCB1
:10048C0007F11003184600F051FC6421062001F01E
:10049C0009FC00BF2037BD4680BD00BF1002002004
:1004AC00C80000206C480008C400002078480008F0
:1004BC0080B500AF534B1B68013B032B00F29980B6
:1004CC0001A252F823F000BFE50400081105000852
:1004DC007B050008BF0500084A4B02221A604A4BF4
:1004EC001B684A4A1360494B1B684FF47A7202FB33
:1004FC0003F31946002001F0D5FB6421022001F022
:10050C00D1FB7DE000F068FEFFF74AFFFFF718FE15
:10051C00FFF7DAFE3E4B1B68042B0ED13D4B1B68DC
:10052C00032B0ADC3C4B1B69012B08D101F058F85A
:10053C00FA21042001F0B6FB01E000F0EBFF364B92
:10054C001B68012B57D100F0FBFE2E4B03221A60C7
:10055C00324B1B682D4A13602C4B1B684FF47A727C
:10056C0002FB03F31946002001F09CFB43E000F072
:10057C006BFEFFF715FFFFF7E3FD00F0DDFFFFF764
:10058C00A3FE254B1B68012B37D100F0D9FE1D4B68
:10059C0004221A60224B1B681C4A13601B4B1B68FD
:1005AC004FF47A7202FB03F31946002001F07AFB38
:1005BC0023E000F02DFEFFF7F3FEFFF7C1FDFFF780
:1005CC0083FE154B1B68012B19D100F0B9FE0D4BA6
:1005DC0002221A600C4B1B680C4A13600B4B1B68F5
:1005EC004FF47A7202FB03F31946002001F05AFB18
:1005FC0005E000BF04E000BF02E000BF00E000BF68
:10060C0000BF80BDB000002000000020B80000201A
:10061C00B4000020BC0000201002002004000020C8
:10062C000800002080B500AF7D4B1B68013B032BFD
:10063C0000F2ED8001A252F823F000BF5906000829
:10064C00890600082B070008A507000800F058FED3
:10065C00734B03221A60734B1B68734A1360724B03
:10066C001B684FF47A7202FB03F31946012001F068
:10067C0019FB6421032001F015FBCFE000F000FE14
:10068C00FFF75EFDFFF756FE684B1B68042B0ED17F
:10069C00674B1B68032B0ADC664B1B69012B08D1CB
:1006AC0000F0BCFFFA21042001F0FCFA01E000F09C
:1006BC0055FF614B1B68012B18D100F041FE584BC4
:1006CC0005221A605D4B1B684FF47A7202FB03F330
:1006DC001946012001F0E6FA594B5B68594A82FB36
:1006EC0003125211DB17D31A4F4A1360514B5B683C
:1006FC00012B40F08E8000F023FE494B03221A6040
:10070C00484B1B68484A1360474B1B684FF47A727E
:10071C0002FB03F31946012001F0C4FA79E000F062
:10072C00EFFD00F02BFFFFF70BFDFFF703FE464B31
:10073C001B68012B18D100F003FE394B06221A60FE
:10074C003E4B1B684FF47A7202FB03F319460120EF
:10075C0001F0A8FA3A4B5B683A4A82FB0312521139
:10076C00DB17D31A304A1360324B5B68012B52D122
:10077C0000F0E6FD2A4B04221A60344B1B682A4A0F
:10078C001360294B1B684FF47A7202FB03F3194672
:10079C00012001F087FA3EE000F092FDFFF7D0FC5B
:1007AC00FFF7C8FD2A4B1B68012B18D100F0C8FDC0
:1007BC001B4B07221A60214B1B684FF47A7202FB09
:1007CC0003F31946012001F06DFA1D4B5B681D4ABD
:1007DC0082FB03125211DB17D31A134A1360154B09
:1007EC005B68012B19D100F0ABFD0D4B02221A6096
:1007FC00184B1B680C4A13600B4B1B684FF47A7236
:10080C0002FB03F31946012001F04CFA05E000BF8E
:10081C0004E000BF02E000BF00E000BF00BF80BDED
:10082C00B400002004000020BC000020B000002018
:10083C00B800002010020020A0000020AC00002016
:10084C00E80100201F85EB51A400002008000020C7
:10085C00A80000200000002080B500AF3E4B1B68B4
:10086C00072B38D0072B73DC052B02D0062B19D0A5
:10087C006EE03A4B1B69012B06D100F097FD4FF44B
:10088C00FA71042001F00EFA354B1B68032B04D1CE
:10089C00314B06221A6000F053FDFFF7CFFDFFF736
:1008AC004FFC56E02D4B1B69012B06D100F0BAFD15
:1008BC004FF4FA71042001F0F5F9294B1B68042B55
:1008CC0004D1254B07221A6000F03AFDFFF7B6FD64
:1008DC00FFF736FC3DE0214B1B69012B06D100F0E4
:1008EC00DDFD4FF4FA71042001F0DCF91C4B1B68A0
:1008FC00012B28D1184B02221A601A4B1B681A4A7A
:10090C0013601A4B1B681A4A1360174B1B684FF481
:10091C007A7202FB03F31946002001F0C3F9144B61
:10092C001B684FF47A7202FB03F31946012001F0A5
:10093C00B9F96421022001F0B5F96421032001F01A
:10094C00B1F900F0FDFCFFF779FDFFF7F9FB00E0D2
:10095C0000BF00BF80BD00BFB0000020100200200F
:10096C00C400002000000020B8000020040000207B
:10097C00BC00002080B500AF2C4B1B68072B34D07B
:10098C00072B49DC052B02D0062B17D044E0FFF7D0
:10099C0055FD274B5B69012B06D100F025FD4FF46B
:1009AC00FA71052001F07EF9224B1B68032B35D11F
:1009BC001E4B06221A6000F0C3FC2FE0FFF73EFD31
:1009CC001B4B5B69012B06D100F04AFD4FF4FA7109
:1009DC00052001F067F9174B1B68042B20D1134B32
:1009EC0007221A6000F0ACFC1AE0FFF727FD104B51
:1009FC005B69012B06D100F06FFD4FF4FA710520F5
:100A0C0001F050F90B4B1B68012B0BD100F098FC3B
:100A1C00064B03221A6005E000BF04E000BF02E0B1
:100A2C0000BF00E000BF00BF80BD00BFB4000020CD
:100A3C0010020020C400002080B500AF00F0BEFA08
:100A4C000346002B2ED0184B01221A60174B0222A2
:100A5C001A60174B03221A6000F072FC154B1B68CE
:100A6C00154A1360154B1B68154A1360124B1B6813
:100A7C004FF47A7202FB03F31946002001F012F9CD
:100A8C000F4B1B684FF47A7202FB03F319460120DB
:100A9C0001F008F96421022001F004F9642103201B
:100AAC0001F000F900BF80BDC4000020B0000020A0
:100ABC00B400002000000020B8000020040000203A
:100ACC00BC00002080B500AF4D4B1B68083B032BCE
:100ADC0000F28A8001A252F823F000BFF90A000844
:100AEC002B0B0008770B0008A90B000800F074FB17
:100AFC0000F006FCFFF7A0FF00F00CFD00F03EFD3F
:100B0C00404B1B68022B71D13D4B09221A6000F03F
:100B1C0017FC41F28831002001F0C4F866E000F0C7
:100B2C005BFB00F0CDFBFFF787FF374B1B69012BFD
:100B3C0005D100F055FDFA21042001F0B3F8314B3A
:100B4C001B68032B04D12E4B0A221A6000F0F8FB11
:100B5C002E4B1B68012B4BD1294B0A221A60294BB7
:100B6C0003221A6000F0ECFB42E000F06DFB00F099
:100B7C0087FBFFF761FF00F0DFFC00F0EFFC214B7F
:100B8C001B68042B36D11E4B0B221A6000F0D8FBCD
:100B9C0041F28831002001F085F82BE000F038FBA1
:100BAC0000F06EFBFFF748FF174B1B69012B05D1BB
:100BBC0000F034FDFA21042001F074F8114B1B688D
:100BCC00012B04D10E4B08221A6000F0B9FB0F4B1D
:100BDC001B68012B10D10A4B08221A60094B012209
:100BEC001A6000F0ADFB07E000BF06E000BF04E0B8
:100BFC0000BF02E000BF00E000BF00BF80BD00BF2F
:100C0C00B0000020C400002010020020E8010020E9
:100C1C0080B586B002AF0346FB71FB7923F00F035E
:100C2C00FB73FB791B01BB73FB7B43F00C03DBB247
:100C3C003B72FB7B43F00803DBB27B72BB7B43F064
:100C4C000C03DBB2BB72BB7B43F00803DBB2FB7261
:100C5C0007F108026423009304234221034801F0A6
:100C6C0033FD00BF1037BD4680BD00BF040100201E
:100C7C0080B586B002AF0346FB71FB7923F00F03FE
:100C8C00FB73FB791B01BB73FB7B43F00D03DBB2E6
:100C9C003B72FB7B43F00903DBB27B72BB7B43F003
:100CAC000D03DBB2BB72BB7B43F00903DBB2FB72FF
:100CBC0007F108026423009304234221034801F046
:100CCC0003FD00BF1037BD4680BD00BF04010020EE
:100CDC0080B500AF3320FFF79BFF3220FFF798FF62
:100CEC00322001F0C7F82820FFF792FF322001F0E4
:100CFC00C1F80120FFF78CFF322001F0BBF8062071
:100D0C00FFF786FF322001F0B5F80C20FFF780FFCB
:100D1C00322001F0AFF80220FFF77AFF322001F009
:100D2C00A9F88020FFF774FF00BF80BD80B582B0AA
:100D3C0000AF786006E07B685A1C7A601B78184616
:100D4C00FFF796FF7B681B78002BF4D100BF00BF28
:100D5C000837BD4680BD80B584B000AF786039607F
:100D6C007B68012B08D17B68DAB23B68DBB2134499
:100D7C00DBB27F33FB7308E03B68DBB24033DBB2A2
:100D8C005BB263F07F035BB2FB73FB7B1846FFF730
:100D9C003FFF00BF1037BD4680BD000080B500AFDF
:100DAC00264B1B78022B38D0022B45DC002B02D0B3
:100DBC00012B1ED040E0002000F0DAF90346002B96
:100DCC0035D01E4B01221A7000F0DAF80346012BC5
:100DDC002DD11B4B1B680133194A1360194B002290
:100DEC001A60174B1B68042B21DD154B01221A606E
:100DFC001DE0002000F0BCF90346002B03D10F4B83
:100E0C0000221A7015E0002000F0CCF90346012BEB
:100E1C000FD10A4B02221A700BE0002000F0A8F947
:100E2C000346002B07D1054B00221A7003E000BFCC
:100E3C0002E000BF00E000BF00BF80BDC00000208A
:100E4C00C4000020C800002080B500AF254B1B78E3
:100E5C00022B35D0022B42DC002B02D0012B1BD0F5
:100E6C003DE0012000F084F90346002B32D01D4BED
:100E7C0001221A7000F0A2F80346012B2AD11A4B5A
:100E8C001B680133184A1360174B1B68632B21DD59
:100E9C00154B00221A601DE0012000F069F9034691
:100EAC00002B03D10F4B00221A7015E0012000F02B
:100EBC0079F90346012B0FD10A4B02221A700BE071
:100ECC00012000F055F90346002B07D1054B0022F9
:100EDC001A7003E000BF02E000BF00E000BF00BFDB
:100EEC0080BD00BFC1000020C800002080B500AF4D
:100EFC001C4B1B78022B24D0022B31DC002B02D094
:100F0C00012B0AD02CE0022000F032F90346002B12
:100F1C0021D0144B01221A701DE0022000F028F998
:100F2C000346002B03D10F4B00221A7015E0022050
:100F3C0000F038F90346012B0FD10A4B02221A702C
:100F4C000BE0022000F014F90346002B07D1054BEF
:100F5C0000221A7003E000BF02E000BF00E000BFF7
:100F6C0000BF80BDC200002080B400AF034B012243
:100F7C001A6000BFBD4680BC704700BFE400002073
:100F8C0080B400AF064B1B68012B04D1044B00222C
:100F9C001A60012300E000231846BD4680BC704750
:100FAC00E400002080B400AF034B01221A6000BFA4
:100FBC00BD4680BC704700BFE800002080B400AF85
:100FCC00064B1B68012B04D1044B00221A60012331
:100FDC0000E000231846BD4680BC7047E8000020A6
:100FEC0080B400AF034B01221A6000BFBD4680BC29
:100FFC00704700BFEC00002080B400AF064B1B68AC
:10100C00012B04D1044B00221A60012300E00023C1
:10101C001846BD4680BC7047EC00002080B582B0FD
:10102C0000AF0023FB718CE0FA79FB794949895CAC
:10103C00494AD154FB79002B08D10121474801F0D2
:10104C00CFF903461A46434B1A7017E0FB79012B74
:10105C0008D10221414801F0C3F903461A463D4B21
:10106C005A700BE0FB79022B08D14FF400513C482D
:10107C0001F0B6F903461A46364B9A70FB79354A9D
:10108C00D25CFB793449CB5C9A424ED1FA79FB792C
:10109C003049895C334AD154FB79324AD35C002BFA
:1010AC004CD1FB79002B02D1FFF75EFF0AE0FB79F4
:1010BC00012B02D1FFF776FF04E0FB79022B01D163
:1010CC00FFF78EFFFB79284A32F81330632B0ED8CA
:1010DC00FB79264AD35C002B09D1FB79224A32F8E2
:1010EC001320013291B2204A22F8131026E0FB792A
:1010FC001E4A0121D154FB791B4A32F813306D2B57
:10110C0009D8FB79184A32F81320013291B2164AE9
:10111C0022F8131012E0FB79124A0121D154FB7909
:10112C00114A642122F8131008E0FB790E4A0021C1
:10113C0022F81310FB790D4A0021D154FB790133AD
:10114C00FB71FB79022B7FF66FAF00BF00BF083736
:10115C00BD4680BDD0000020D40000200008014016
:10116C0000100140CC000020DC000020D800002042
:10117C0080B483B000AF0346FB71FB79022B01D91D
:10118C00002307E0FB79064AD35C002B0CBF01233C
:10119C000023DBB218460C37BD4680BC704700BF3D
:1011AC00CC00002080B483B000AF0346FB71FB7908
:1011BC00022B01D9FF2307E0FB79064AD35C012BF4
:1011CC000CBF01230023DBB218460C37BD4680BC94
:1011DC00704700BFD800002080B500AF0122082165
:1011EC000A4801F014F901222021084801F00FF9F6
:1011FC0001221021054801F00AF901224FF4806107
:10120C00024801F004F900BF80BD00BF000C014092
:10121C0080B500AF002208210A4801F0F8F801223D
:10122C002021084801F0F3F800221021054801F0B4
:10123C00EEF801224FF48061024801F0E8F800BF9B
:10124C0080BD00BF000C014080B500AF0122082119
:10125C000A4801F0DCF800222021084801F0D7F8F8
:10126C0001221021054801F0D2F800224FF48061D0
:10127C00024801F0CCF800BF80BD00BF000C01405B
:10128C0080B500AF01224FF480710A4801F0BFF81D
:10129C0001224FF40071074801F0B9F801228021B6
:1012AC00054801F0B4F801224021044801F0AFF8E0
:1012BC0000BF80BD0008014000100140000C01403F
:1012CC0080B500AF00224FF480710A4801F09FF8FE
:1012DC0001224FF40071074801F099F80022802197
:1012EC00054801F094F801224021044801F08FF8E0
:1012FC0000BF80BD0008014000100140000C0140FF
:10130C0080B500AF01224FF480710A4801F07FF8DC
:10131C0000224FF40071074801F079F80122802176
:10132C00054801F074F800224021044801F06FF8E0
:10133C0000BF80BD0008014000100140000C0140BE
:10134C0080B500AF00220821154801F060F800229A
:10135C002021134801F05BF800221021104801F005
:10136C0056F800224FF480610D4801F050F800222D
:10137C004FF480710B4801F04AF800224FF40071D1
:10138C00084801F044F800228021074801F03FF89A
:10139C0000224021024801F03AF800BF80BD00BF96
:1013AC00000C0140000801400010014080B500AF66
:1013BC000C4B1B68002B02D0012B03D005E0FFF770
:1013CC000BFF02E0FFF7BCFF00BF064B1B68002BB6
:1013DC0003D1044B01221A6002E0024B00221A6076
:1013EC0000BF80BDF000002080B500AF0C4B1B6827
:1013FC00002B02D0012B03D005E0FFF741FF02E0E8
:10140C00FFF79EFF00BF064B1B68002B03D1044B5C
:10141C0001221A6002E0024B00221A6000BF80BD5C
:10142C00F400002080B500AF0C4B1B68002B02D0E1
:10143C00012B03D005E0FFF707FF02E0FFF780FF69
:10144C0000BF064B1B68002B03D1044B01221A6012
:10145C0002E0024B00221A6000BF80BDF0000020A9
:10146C0080B500AF0C4B1B68002B02D0012B03D0B6
:10147C0005E0FFF745FF02E0FFF762FF00BF064BF8
:10148C001B68002B03D1044B01221A6002E0024BB3
:10149C0000221A6000BF80BDF400002080B500AFB0
:1014AC000C4B1B68002B02D0012B03D005E0FFF77F
:1014BC00AFFE02E0FFF744FF00BF064B1B68002B9A
:1014CC0003D1044B01221A6002E0024B00221A6085
:1014DC0000BF80BDF000002080B500AF0C4B1B6836
:1014EC00002B02D0012B03D005E0FFF7E9FE02E050
:1014FC00FFF726FF00BF064B1B68002B03D1044BE4
:10150C0001221A6002E0024B00221A6000BF80BD6B
:10151C00F400002080B500AF01221021044800F037
:10152C0076FF00220121034800F071FF00BF80BD4F
:10153C0000080140000C014080B500AF01221021D1
:10154C00044800F064FF01220121034800F05FFF12
:10155C0000BF80BD00080140000C014080B500AF09
:10156C0001220221044800F052FF0022042102480B
:10157C0000F04DFF00BF80BD000C014080B500AFF6
:10158C0001220221044800F042FF012204210248FA
:10159C0000F03DFF00BF80BD000C014080B500AFE6
:1015AC0000221021044800F032FF002201210348E0
:1015BC0000F02DFF00BF80BD00080140000C014071
:1015CC0080B500AF00220221044800F020FF002269
:1015DC000421024800F01BFF00BF80BD000C01403D
:1015EC0080B500AF0C4B1B68002B02D0012B03D035
:1015FC0005E0FFF78FFF02E0FFF7D0FF00BF064BBF
:10160C001B68002B03D1044B01221A6002E0024B31
:10161C0000221A6000BF80BDF000002080B500AF32
:10162C000C4B1B68002B02D0012B03D005E0FFF7FD
:10163C0095FF02E0FFF7C4FF00BF064B1B68002BB1
:10164C0003D1044B01221A6002E0024B00221A6003
:10165C0000BF80BDF400002080B500AF00F0A8FBF7
:10166C0000F048F800F02AF900F0FEF800F0B0F8AD
:10167C0000F080F8194801F0DDFFFFF729FB184B4B
:10168C0001221A60174B01221A60174B01221A60B3
:10169C00164B00221A60164B00221A600A210620F3
:1016AC0000F000FB4FF4FA71042000F0FBFA4FF449
:1016BC00FA71052000F0F6FAFFF704FAFEF7F8FECF
:1016CC00FEF7B0FFFFF7C8F8FFF754F9FFF766FB1A
:1016DC00FFF7BAFBFFF70AFCEEE700BF580100204A
:1016EC00B0000020B4000020C4000020C80000207E
:1016FC009C00002080B590B000AF07F118032822A1
:10170C000021184602F040FC3B1D00221A605A6072
:10171C009A60DA601A610223BB610123BB62102359
:10172C00FB6202237B630023BB630023FB6307F193
:10173C001803184601F020FB0346002B01D000F0E3
:10174C0059F90F237B600223BB600023FB604FF42D
:10175C0080633B6100237B613B1D0021184601F037
:10176C008BFD0346002B01D000F044F900BF40373D
:10177C00BD4680BD80B500AF124B134A1A60114BA9
:10178C00124A5A600F4B00229A600E4B0022DA600C
:10179C000C4B4FF480421A610A4B00225A61094BE0
:1017AC0000229A61074B0022DA61064B00221A6272
:1017BC00044800F045FE0346002B01D000F01AF956
:1017CC0000BF80BD0401002000540040A086010031
:1017DC0080B586B000AF07F1080300221A605A608A
:1017EC009A60DA603B4600221A605A601D4B4FF03B
:1017FC0080421A601B4B41F63F725A60194B002213
:10180C009A60184B0922DA60164B00221A61154BAC
:10181C0000229A61134801F0BDFE0346002B01D053
:10182C0000F0E8F84FF48053BB6007F10803194649
:10183C000C4802F041F80346002B01D000F0DAF816
:10184C0000233B6000237B603B461946054802F0B1
:10185C0023FA0346002B01D000F0CCF800BF183758
:10186C00BD4680BD5801002080B500AF114B124A17
:10187C001A60104B4FF4E1325A600E4B00229A6002
:10188C000C4B0022DA600B4B00221A61094B0C2224
:10189C005A61084B00229A61064B0022DA61054816
:1018AC0002F06AFA0346002B01D000F0A3F800BF47
:1018BC0080BD00BFA00100200044004080B588B06E
:1018CC0000AF07F1100300221A605A609A60DA60C8
:1018DC00444B9B69434A43F010039361414B9B6912
:1018EC0003F01003FB60FB683E4B9B693D4A43F0E1
:1018FC00200393613B4B9B6903F02003BB60BB68E7
:10190C00384B9B69374A43F004039361354B9B6911
:10191C0003F004037B607B68324B9B69314A43F0D4
:10192C00080393612F4B9B6903F008033B603B68F2
:10193C0000224FF44C712C4800F069FD002240F25B
:10194C007F412A4800F063FD00228021284800F0E6
:10195C005EFD4FF400533B6100237B610023BB61B0
:10196C0007F110031946224800F0B6FB03233B6134
:10197C0000237B610123BB6107F1100319461A4850
:10198C0000F0AAFB4FF44C733B6101237B610023F5
:10199C00BB610223FB6107F110031946124800F0EA
:1019AC009BFB40F27F433B6101237B610023BB61C6
:1019BC000223FB6107F1100319460C4800F08CFB65
:1019CC0080233B6101237B610023BB610223FB610C
:1019DC0007F110031946064800F07EFB00BF2037C4
:1019EC00BD4680BD0010024000080140000C0140C3
:1019FC000010014080B400AF72B600BFFEE70000DB
:101A0C0080B485B000AF154B9B69144A43F00103B9
:101A1C009361124B9B6903F00103BB60BB680F4BD6
:101A2C00DB690E4A43F08053D3610C4BDB6903F046
:101A3C0080537B607B680A4B5B68FB60FB6823F020
:101A4C00E063FB60FB6843F00073FB60044AFB68D7
:101A5C00536000BF1437BD4680BC70470010024075
:101A6C000000014080B58AB000AF786007F1140324
:101A7C0000221A605A609A60DA607B681B681D4A03
:101A8C00934232D11C4B9B691B4A43F00803936170
:101A9C00194B9B6903F008033B613B694FF440739E
:101AAC007B611223BB6103233B6207F114031946CC
:101ABC00124800F011FB124B5B687B627B6A43F0AF
:101ACC00E0637B627B6A43F002037B620C4A7B6AB5
:101ADC005360094BDB69084A43F40013D361064B8E
:101AEC00DB6903F40013FB60FB6800BF2837BD46BD
:101AFC0080BD00BF0054004000100240000C0140AB
:101B0C000000014080B584B000AF78607B681B6832
:101B1C00B3F1804F13D10C4BDB690B4A43F001033B
:101B2C00D361094BDB6903F00103FB60FB68002206
:101B3C0000211C2000F099FA1C2000F0B2FA00BF22
:101B4C001037BD4680BD00BF0010024080B588B084
:101B5C0000AF786007F1100300221A605A609A6097
:101B6C00DA607B681B68154A934223D1144BDB69FE
:101B7C00134A43F40033D361114BDB6903F4003394
:101B8C00FB60FB680E4B9B690D4A43F004039361A9
:101B9C000B4B9B6903F00403BB60BB680C233B61DC
:101BAC0002237B610223FB6107F1100319460548F0
:101BBC0000F092FA00BF2037BD4680BD00440040C3
:101BCC00001002400008014080B400AFFEE780B472
:101BDC0000AFFEE780B400AFFEE780B400AFFEE7D5
:101BEC0080B400AFFEE780B400AF00BFBD4680BC40
:101BFC00704780B400AF00BFBD4680BC704780B456
:101C0C0000AF00BFBD4680BC704780B500AF00F090
:101C1C0015F900BF80BD000080B500AF024801F08F
:101C2C005BFD00BF80BD00BF5801002080B586B0B1
:101C3C0000AF7860144A154BD31A7B617B693B610A
:101C4C00134B1B68002B02D1114B124A1A60104B1C
:101C5C001A687B6813443A699A4207D202F06AF90F
:101C6C0003460C221A604FF0FF3309E0084B1B6847
:101C7C00FB60074B1A687B681344054A1360FB68CA
:101C8C0018461837BD4680BD0050002000040000E7
:101C9C00F80000205002002080B400AF00BFBD4609
:101CAC0080BC704780B483B000AF78603960094B5A
:101CBC001B683A6892FBF3F207497B6841F82320D2
:101CCC00064A7B68002142F8231000BF0C37BD4642
:101CDC0080BC704710000020E8010020100200209A
:101CEC0080B483B000AF00237B601CE0124A7B6899
:101CFC0052F82330002B13DD0F4A7B6852F8233047
:101D0C005A1E0D497B6841F823200B4A7B6852F818
:101D1C002330002B04DC094A7B68012142F8231094
:101D2C007B6801337B607B68092BDFDD00BF00BF64
:101D3C000C37BD4680BC7047E80100201002002023
:101D4C0080B582B000AF78607B681B68B3F1804FC0
:101D5C0003D1FFF763F9FFF7C3FF00BF0837BD4698
:101D6C0080BD0000FFF798FF0B480C490C4A00237C
:101D7C0002E0D458C4500433C4188C42F9D3094A35
:101D8C00094C002301E013600432A242FBD302F0A1
:101D9C00D7F8FFF761FC704700000020800000209E
:101DAC00EC480008800000204C020020FEE70000F8
:101DBC0080B500AF084B1B68074A43F01003136053
:101DCC00032000F047F9002000F008F8FFF718FE98
:101DDC000023184680BD00BF0020024080B582B0B1
:101DEC0000AF7860124B1A68124B1B7819464FF4EF
:101DFC007A73B3FBF1F3B2FBF3F3184600F05FF91F
:101E0C000346002B01D001230EE07B680F2B0AD870
:101E1C00002279684FF0FF3000F027F9064A7B6802
:101E2C001360002300E0012318460837BD4680BD2F
:101E3C000C000020180000201400002080B400AF1B
:101E4C00054B1B781A46054B1B681344034A136059
:101E5C0000BFBD4680BC704718000020380200202F
:101E6C0080B400AF024B1B681846BD4680BC70475F
:101E7C003802002080B584B000AF7860FFF7F0FF27
:101E8C00B8607B68FB60FB68B3F1FF3F05D00A4B81
:101E9C001B781A46FB681344FB6000BFFFF7E0FF9A
:101EAC000246BB68D31AFA689A42F7D800BF00BF43
:101EBC001037BD4680BD00BF1800002080B485B02F
:101ECC0000AF78607B6803F00703FB600C4BDB68AA
:101EDC00BB60BA684FF6FF031340BB60FB681A0285
:101EEC00BB68134343F0BF6343F40033BB60044A45
:101EFC00BB68D36000BF1437BD4680BC704700BFC1
:101F0C0000ED00E080B400AF044BDB681B0A03F06B
:101F1C0007031846BD4680BC704700BF00ED00E0CB
:101F2C0080B483B000AF0346FB7197F90730002BE8
:101F3C000BDBFB7903F01F02064997F907305B09AD
:101F4C00012000FA02F241F8232000BF0C37BD46F5
:101F5C0080BC704700E100E080B483B000AF034662
:101F6C003960FB7197F90730002B0ADB3B68DAB25A
:101F7C000C4997F907301201D2B20B4483F80023B5
:101F8C000AE03B68DAB20849FB7903F00F03043B23
:101F9C001201D2B20B441A7600BF0C37BD4680BC7E
:101FAC00704700BF00E100E000ED00E080B489B0B4
:101FBC0000AFF860B9607A60FB6803F00703FB615F
:101FCC00FB69C3F10703042B28BF0423BB61FB6926
:101FDC000433062B02D9FB69033B00E000237B6131
:101FEC004FF0FF32BB6902FA03F3DA43BB681A40C5
:101FFC007B699A404FF0FF317B6901FA03F3D943B7
:10200C007B680B40134318462437BD4680BC704791
:10201C0080B582B000AF78607B68013BB3F1807F04
:10202C0001D301230FE00A4A7B68013B53600F2167
:10203C004FF0FF30FFF790FF054B00229A60044BE6
:10204C0007221A60002318460837BD4680BD00BF22
:10205C0010E000E080B582B000AF78607868FFF7E0
:10206C002DFF00BF0837BD4680BD80B586B000AFE0
:10207C000346B9607A60FB7300237B61FFF742FF74
:10208C0078617A68B9687869FFF790FF024697F92A
:10209C000F3011461846FFF75FFF00BF1837BD46DB
:1020AC0080BD80B582B000AF0346FB7197F9073055
:1020BC001846FFF735FF00BF0837BD4680BD80B519
:1020CC0082B000AF78607868FFF7A2FF034618462D
:1020DC000837BD4680BD000080B48BB000AF78607F
:1020EC00396000237B6200233B6269E101227B6A39
:1020FC0002FA03F3FB613B681B68FA691340BB618E
:10210C00BA69FB699A4240F058813B685B689A4A0D
:10211C0093425ED0984A934275D8984A934258D0CD
:10212C00964A93426FD8964A934252D0944A93421D
:10213C0069D8944A93424CD0924A934263D8924ABB
:10214C00934246D0904A93425DD8122B2AD8122B38
:10215C0059D801A252F823F0DF210008B921000858
:10216C00CB2100080D2200081322000813220008BE
:10217C00132200081322000813220008132200085F
:10218C00132200081322000813220008132200084F
:10219C00132200081322000813220008C121000892
:1021AC00D5210008794A934213D02CE03B68DB68B8
:1021BC003B6229E03B68DB6804333B6224E03B680C
:1021CC00DB6808333B621FE03B68DB680C333B6227
:1021DC001AE03B689B68002B02D104233B6213E09E
:1021EC003B689B68012B05D108233B627B68FA692D
:1021FC001A6109E008233B627B68FA695A6103E0C3
:10220C0000233B6200E000BFBB69FF2B01D87B6859
:10221C0001E07B6804337B61BB69FF2B02D87B6ACE
:10222C009B0002E07B6A083B9B003B617B691A6860
:10223C000F213B6901FA03F3DB431A40396A3B690E
:10224C0001FA03F31A437B691A603B685B6803F07D
:10225C008053002B00F0B1804D4B9B694C4A43F0EE
:10226C00010393614A4B9B6903F00103BB60BB689C
:10227C00484A7B6A9B08023352F82330FB607B6A26
:10228C0003F003039B000F2202FA03F3DB43FA680B
:10229C001340FB607B68404A934213D07B683F4AF3
:1022AC0093420DD07B683E4A934207D07B683D4AEF
:1022BC00934201D1032306E0042304E0022302E04D
:1022CC00012300E000237A6A02F00302920093409B
:1022DC00FA681343FB602F497B6A9B080233FA6848
:1022EC0041F823203B685B6803F48013002B06D075
:1022FC002D4B9A682C49BB6913438B6006E02A4B23
:10230C009A68BB69DB43284913408B603B685B6868
:10231C0003F40013002B06D0234BDA682249BB6967
:10232C001343CB6006E0204BDA68BB69DB431E49E4
:10233C001340CB603B685B6803F40033002B06D082
:10234C00194B5A681849BB6913434B6006E0164B8E
:10235C005A68BB69DB43144913404B603B685B68AC
:10236C0003F48033002B21D00F4B1A680E49BB6944
:10237C0013430B6021E000BF00003210000031104D
:10238C00000022100000211000001210000011109B
:10239C00001002400000014000080140000C014008
:1023AC000010014000140140000401400B4B1A685E
:1023BC00BB69DB43094913400B607B6A01337B62C9
:1023CC003B681A687B6A22FA03F3002B7FF48EAE0B
:1023DC0000BF00BF2C37BD4680BC704700040140D5
:1023EC0080B485B000AF78600B467B807B689A68C0
:1023FC007B881340002B02D00123FB7301E00023E8
:10240C00FB73FB7B18461437BD4680BC704780B409
:10241C0083B000AF78600B467B8013467B707B7873
:10242C00002B03D07A887B681A6103E07B881A043E
:10243C007B681A6100BF0C37BD4680BC704700003A
:10244C0080B584B000AF78607B68002B01D101238C
:10245C002BE17B6893F83D30DBB2002B06D17B6817
:10246C00002283F83C207868FFF7FCFA7B68242272
:10247C0083F83D207B681B681A687B681B6822F018
:10248C0001021A607B681B681A687B681B6842F43F
:10249C0000421A607B681B681A687B681B6822F410
:1024AC0000421A6001F030F8F8607B685B68814A82
:1024BC00934207D8FB68804A934294BF01230023C0
:1024CC00DBB206E0FB687D4A934294BF01230023F4
:1024DC00DBB2002B01D00123E7E0FB68784AA2FBBA
:1024EC0003239B0CBB607B681B685B6823F03F017C
:1024FC007B681B68BA680A435A607B681B681B6A56
:10250C0023F03F017B685B686A4A934202D8BB6840
:10251C00013309E0BB684FF4967202FB03F3694A7E
:10252C00A2FB03239B0901337A6812680B431362E5
:10253C007B681B68DB6923F44F4222F0FF027B6847
:10254C005B685C498B4219D8FB68591E7B685B68D9
:10255C005B00B1FBF3F3591C40F6FC730B40002BF2
:10256C000AD0FB68591E7B685B685B00B1FBF3F318
:10257C000133C3F30B0351E004234FE07B689B68EA
:10258C00002B11D1FB68581E7B6859680B465B0009
:10259C000B44B0FBF3F30133C3F30B03002B0CBF61
:1025AC0001230023DBB212E0FB68581E7B685968DC
:1025BC000B469B000B4499000B44B0FBF3F3013327
:1025CC00C3F30B03002B0CBF01230023DBB2002B46
:1025DC0001D0012322E07B689B68002B0ED1FB68A5
:1025EC00581E7B6859680B465B000B44B0FBF3F339
:1025FC000133C3F30B0343F400430FE0FB68581E95
:10260C007B6859680B469B000B4499000B44B0FB4C
:10261C00F3F30133C3F30B0343F4404379680968C4
:10262C001343CB617B681B681B6823F0C0017B687C
:10263C00DA697B681B6A1A437B681B680A431A6059
:10264C007B681B689B6823F4034323F0FF037A68C1
:10265C0011697A68D26811437A6812680B439360E7
:10266C007B681B68DB6823F0FF017B685A697B6819
:10267C009B691A437B681B680A43DA607B681B689A
:10268C001A687B681B6842F001021A607B680022A2
:10269C001A647B68202283F83D207B6800221A6331
:1026AC007B68002283F83E20002318461037BD4675
:1026BC0080BD00BFA08601007F841E00FF083D0086
:1026CC0083DE1B43D34D621080B588B002AFF86037
:1026DC007A601A460B467B8113463B81FFF7C0FBA1
:1026EC007861FB6893F83D30DBB2202B40F0E08042
:1026FC007B690093192301227049F86800F064F992
:10270C000346002B01D00223D3E0FB6893F83C3046
:10271C00012B01D10223CCE0FB68012283F83C2081
:10272C00FB681B681B6803F00103012B07D0FB68D7
:10273C001B681A68FB681B6842F001021A60FB6890
:10274C001B681A68FB681B6822F400621A60FB683D
:10275C00212283F83D20FB68102283F83E20FB6881
:10276C0000221A64FB687A685A62FB683A895A85B7
:10277C00FB685B8D9AB2FB681A85FB68504ADA627B
:10278C0079897B693A6AF86800F09CF80346002B5B
:10279C0001D001238DE000233B61FB681B685B6962
:1027AC003B61FB681B689B693B613B6966E07A692E
:1027BC00396AF86800F022FA0346002B0DD0FB684A
:1027CC001B6C042B07D1FB681B681A68FB681B6821
:1027DC0042F400721A6001236BE0FB685B6A1A78A2
:1027EC00FB681B681A61FB685B6A5A1CFB685A62BF
:1027FC00FB685B8D9BB2013B9AB2FB685A85FB6808
:10280C001B8D013B9AB2FB681A85FB681B685B69E0
:10281C0003F00403042B1BD1FB681B8D002B17D07A
:10282C00FB685B6A1A78FB681B681A61FB685B6A59
:10283C005A1CFB685A62FB685B8D9BB2013B9AB2D7
:10284C00FB685A85FB681B8D013B9AB2FB681A85A5
:10285C007A69396AF86800F019FA0346002B0DD032
:10286C00FB681B6C042B07D1FB681B681A68FB68A0
:10287C001B6842F400721A6001231AE0FB681B8D7E
:10288C00002B94D1FB681B681A68FB681B6842F428
:10289C0000721A60FB68202283F83D20FB6800223E
:1028AC0083F83E20FB68002283F83C20002300E0E4
:1028BC00022318461837BD4680BD00BF0200100029
:1028CC000000FFFF80B588B002AFF8607A603B6013
:1028DC000B467B81FB68DB6A7B617B69082B06D02E
:1028EC007B69012B03D07B6913F5803F08D1FB6812
:1028FC001B681A68FB681B6842F480721A600BE054
:10290C00FB681B6B122B07D1FB681B681A68FB68F2
:10291C001B6842F480721A603B6800937B6800224B
:10292C004FF00111F86800F04FF80346002B0DD062
:10293C00FB681B681B6803F48073B3F5807F03D1BD
:10294C00FB684FF400721A64032335E0FB681B69C3
:10295C00B3F5804F08D17B89DBB21A46FB681B6844
:10296C0002F0FE021A611BE07B89DB11DBB203F083
:10297C000603DBB263F00F03DAB2FB681B681A6163
:10298C003B687A680E49F86800F098F80346002B0B
:10299C0001D0012310E07B89DAB2FB681B681A6155
:1029AC003B687A680749F86800F088F80346002B02
:1029BC0001D0012300E0002318461837BD4680BD26
:1029CC00080001000200010080B584B000AFF8607F
:1029DC00B9603B601346FB7148E03B68B3F1FF3FC5
:1029EC0044D0FFF73DFA0246BB69D31A3A689A42C3
:1029FC0002D33B68002B39D1BB681B0CDBB2012B1B
:102A0C000DD1FB681B685B69DA43BB6813409BB252
:102A1C00002B0CBF01230023DBB21A460CE0FB6831
:102A2C001B689B69DA43BB6813409BB2002B0CBF3D
:102A3C0001230023DBB21A46FB799A4216D1FB68BC
:102A4C0000221A63FB68202283F83D20FB680022D9
:102A5C0083F83E20FB681B6C43F02002FB681A6471
:102A6C00FB68002283F83C20012323E0BB681B0C8D
:102A7C00DBB2012B0DD1FB681B685B69DA43BB68C9
:102A8C0013409BB2002B0CBF01230023DBB21A4670
:102A9C000CE0FB681B689B69DA43BB6813409BB274
:102AAC00002B0CBF01230023DBB21A46FB799A42A0
:102ABC0093D0002318461037BD4680BD80B584B036
:102ACC0000AFF860B9607A603B6071E0FB681B682E
:102ADC005B6903F48063B3F5806F23D1FB681B68DB
:102AEC001A68FB681B6842F400721A60FB681B686A
:102AFC006FF480625A61FB6800221A63FB68202223
:102B0C0083F83D20FB68002283F83E20FB681B6C99
:102B1C0043F00402FB681A64FB68002283F83C2033
:102B2C00012367E07B68B3F1FF3F41D0FFF798F9D1
:102B3C0002463B68D31A7A689A4202D37B68002B10
:102B4C0036D1BB681B0CDBB2012B0CD1FB681B68AC
:102B5C005B69DA43BB6813409BB2002B14BF0123A3
:102B6C000023DBB20BE0FB681B689B69DA43BB6894
:102B7C0013409BB2002B14BF01230023DBB2002BAC
:102B8C0016D0FB6800221A63FB68202283F83D20D4
:102B9C00FB68002283F83E20FB681B6C43F020028C
:102BAC00FB681A64FB68002283F83C20012321E0B7
:102BBC00BB681B0CDBB2012B0CD1FB681B685B697F
:102BCC00DA43BB6813409BB2002B14BF01230023D4
:102BDC00DBB20BE0FB681B689B69DA43BB681340F4
:102BEC009BB2002B14BF01230023DBB2002B7FF41C
:102BFC006DAF002318461037BD4680BD80B584B03C
:102C0C0000AFF860B9607A6034E0F86800F086F8DC
:102C1C000346002B01D0012334E0BB68B3F1FF3F26
:102C2C0028D0FFF71DF902467B68D31ABA689A427E
:102C3C0002D3BB68002B1DD1FB681B685B6903F0DA
:102C4C008003802B16D0FB6800221A63FB682022BD
:102C5C0083F83D20FB68002283F83E20FB681B6C48
:102C6C0043F02002FB681A64FB68002283F83C20C6
:102C7C00012307E0FB681B685B6903F08003802B72
:102C8C00C3D1002318461037BD4680BD80B584B033
:102C9C0000AFF860B9607A6034E0F86800F03EF894
:102CAC000346002B01D0012334E0BB68B3F1FF3F96
:102CBC0028D0FFF7D5F802467B68D31ABA689A4237
:102CCC0002D3BB68002B1DD1FB681B685B6903F04A
:102CDC000403042B16D0FB6800221A63FB68202225
:102CEC0083F83D20FB68002283F83E20FB681B6CB8
:102CFC0043F02002FB681A64FB68002283F83C2036
:102D0C00012307E0FB681B685B6903F00403042BD9
:102D1C00C3D1002318461037BD4680BD80B483B0A4
:102D2C0000AF78607B681B685B6903F48063B3F564
:102D3C00806F1BD17B681B686FF480625A617B6863
:102D4C0000221A637B68202283F83D207B680022D6
:102D5C0083F83E207B681B6C43F004027B681A648A
:102D6C007B68002283F83C20012300E000231846F6
:102D7C000C37BD4680BC704780B586B000AF78601C
:102D8C007B68002B01D101236CE27B681B6803F08C
:102D9C000103002B00F08780924B5B6803F00C035F
:102DAC00042B0CD08F4B5B6803F00C03082B12D157
:102DBC008C4B5B6803F48033B3F5803F0BD1894BAC
:102DCC001B6803F40033002B6CD07B685B68002B12
:102DDC0068D1012346E27B685B68B3F5803F06D17E
:102DEC00804B1B687F4A43F4803313602EE07B6872
:102DFC005B68002B0CD17B4B1B687A4A23F4803325
:102E0C001360784B1B68774A23F4802313601DE012
:102E1C007B685B68B3F5A02F0CD1724B1B68714AB1
:102E2C0043F4802313606F4B1B686E4A43F480336A
:102E3C0013600BE06B4B1B686A4A23F480331360FE
:102E4C00684B1B68674A23F4802313607B685B68BC
:102E5C00002B13D0FFF704F8386108E0FFF700F8F7
:102E6C0002463B69D31A642B01D90323FAE15D4B6B
:102E7C001B6803F40033002BF0D014E0FEF7F0FFD6
:102E8C00386108E0FEF7ECFF02463B69D31A642B6D
:102E9C0001D90323E6E1534B1B6803F40033002BE9
:102EAC00F0D100E000BF7B681B6803F00203002B2D
:102EBC0063D04C4B5B6803F00C03002B0BD0494BDD
:102ECC005B6803F00C03082B1CD1464B5B6803F4C6
:102EDC008033002B16D1434B1B6803F00203002BED
:102EEC0005D07B681B69012B01D00123BAE13D4B56
:102EFC001B6823F0F8027B685B69DB0039491343DC
:102F0C000B603AE07B681B69002B20D0364B01220A
:102F1C001A60FEF7A5FF386108E0FEF7A1FF024634
:102F2C003B69D31A022B01D903239BE12D4B1B6860
:102F3C0003F00203002BF0D02A4B1B6823F0F8029D
:102F4C007B685B69DB00274913430B6015E0264B5C
:102F5C0000221A60FEF784FF386108E0FEF780FF5C
:102F6C0002463B69D31A022B01D903237AE11D4B8C
:102F7C001B6803F00203002BF0D17B681B6803F085
:102F8C000803002B3AD07B689B69002B19D0174B98
:102F9C0001221A60FEF764FF386108E0FEF760FF5B
:102FAC0002463B69D31A022B01D903235AE10D4B7C
:102FBC005B6A03F00203002BF0D0012000F0CCFA86
:102FCC001CE00A4B00221A60FEF74AFF38610FE042
:102FDC00FEF746FF02463B69D31A022B08D903239E
:102FEC0040E100BF00100240000042428004424217
:102FFC009E4B5B6A03F00203002BE9D17B681B68D4
:10300C0003F00403002B00F0A6800023FB75974B04
:10301C00DB6903F08053002B0DD1944BDB69934A91
:10302C0043F08053D361914BDB6903F08053BB6059
:10303C00BB680123FB758E4B1B6803F48073002B5C
:10304C0018D18B4B1B688A4A43F480731360FEF7CC
:10305C0007FF386108E0FEF703FF02463B69D31A0D
:10306C00642B01D90323FDE0814B1B6803F48073AF
:10307C00002BF0D07B68DB68012B06D17B4B1B6AE5
:10308C007A4A43F0010313622DE07B68DB68002B66
:10309C000CD1764B1B6A754A23F001031362734BF8
:1030AC001B6A724A23F0040313621CE07B68DB6822
:1030BC00052B0CD16D4B1B6A6C4A43F00403136255
:1030CC006A4B1B6A694A43F0010313620BE0674BBE
:1030DC001B6A664A23F001031362644B1B6A634A42
:1030EC0023F0040313627B68DB68002B15D0FEF71A
:1030FC00B7FE38610AE0FEF7B3FE02463B69D31A0D
:10310C0041F28832934201D90323ABE0574B1B6A3F
:10311C0003F00203002BEED014E0FEF7A1FE3861A1
:10312C000AE0FEF79DFE02463B69D31A41F2883253
:10313C00934201D9032395E04C4B1B6A03F0020325
:10314C00002BEED1FB7D012B05D1484BDB69474AA7
:10315C0023F08053D3617B68DB69002B00F0818006
:10316C00424B5B6803F00C03082B61D07B68DB6976
:10317C00022B46D13F4B00221A60FEF771FE3861DC
:10318C0008E0FEF76DFE02463B69D31A022B01D90B
:10319C00032367E0354B1B6803F00073002BF0D161
:1031AC007B681B6AB3F5803F08D1304B5B6823F416
:1031BC0000327B689B682D4913434B602B4B5B683B
:1031CC0023F474127B68196A7B685B6A0B4327498A
:1031DC0013434B60274B01221A60FEF741FE386106
:1031EC0008E0FEF73DFE02463B69D31A022B01D9DB
:1031FC00032337E01D4B1B6803F00073002BF0D04A
:10320C002FE01C4B00221A60FEF72AFE386108E002
:10321C00FEF726FE02463B69D31A022B01D9032383
:10322C0020E0124B1B6803F00073002BF0D118E068
:10323C007B68DB69012B01D1012313E00B4B5B682D
:10324C00FB60FB6803F480327B681B6A9A4206D1F0
:10325C00FB6803F470127B685B6A9A4201D001230D
:10326C0000E0002318461837BD4680BD0010024010
:10327C00007000406000424280B584B000AF7860BE
:10328C0039607B68002B01D10123D0E06A4B1B68AD
:10329C0003F007033A689A4210D9674B1B6823F076
:1032AC00070265493B6813430B60634B1B6803F0D3
:1032BC0007033A689A4201D00123B8E07B681B6887
:1032CC0003F00203002B20D07B681B6803F004037F
:1032DC00002B05D0594B5B68584A43F4E0635360AC
:1032EC007B681B6803F00803002B05D0534B5B680D
:1032FC00524A43F460535360504B5B6823F0F00226
:10330C007B689B684D4913434B607B681B6803F0DB
:10331C000103002B40D07B685B68012B07D1474B26
:10332C001B6803F40033002B15D101237FE07B686D
:10333C005B68022B07D1414B1B6803F00073002B19
:10334C0009D1012373E03D4B1B6803F00203002BF2
:10335C0001D101236BE0394B5B6823F003027B68DE
:10336C005B68364913434B60FEF77AFDF8600AE060
:10337C00FEF776FD0246FB68D31A41F2883293427F
:10338C0001D9032353E02D4B5B6803F00C027B68DF
:10339C005B689B009A42EBD1274B1B6803F0070339
:1033AC003A689A4210D2244B1B6823F00702224938
:1033BC003B6813430B60204B1B6803F007033A6810
:1033CC009A4201D0012332E07B681B6803F00403AE
:1033DC00002B08D0194B5B6823F4E0627B68DB6838
:1033EC00164913434B607B681B6803F00803002BE2
:1033FC0009D0124B5B6823F460527B681B69DB00BD
:10340C000E4913434B6000F021F802460B4B5B68EE
:10341C001B0903F00F030A49CB5C22FA03F3094A98
:10342C001360094B1B681846FEF7D8FC002318469E
:10343C001037BD4680BD00BF002002400010024086
:10344C00844800080C0000201400002080B487B0D1
:10345C0000AF0023FB600023BB6000237B610023D3
:10346C007B6000233B611E4B5B68FB60FB6803F0D9
:10347C000C03042B02D0082B03D027E0194B3B6123
:10348C0027E0FB689B0C03F00F03174AD35C7B60AF
:10349C00FB6803F48033002B10D0114B5B685B0C82
:1034AC0003F00103114AD35CBB607B680D4A02FB3D
:1034BC0003F2BB68B2FBF3F37B6104E07B680C4A5C
:1034CC0002FB03F37B617B693B6102E0054B3B61D3
:1034DC0000BF3B6918461C37BD4680BC704700BF17
:1034EC000010024000127A009C480008AC4800080A
:1034FC0000093D0080B400AF024B1B681846BD4666
:10350C0080BC70470C00002080B500AFFFF7F2FFC5
:10351C000246054B5B681B0A03F007030349CB5CAF
:10352C0022FA03F3184680BD0010024094480008AC
:10353C0080B500AFFFF7DEFF0246054B5B68DB0A88
:10354C0003F007030349CB5C22FA03F3184680BD52
:10355C00001002409448000880B485B000AF786039
:10356C000A4B1B680A4AA2FB03235B0A7A6802FB1C
:10357C0003F3FB6000BFFB685A1EFA60002BF9D105
:10358C0000BF00BF1437BD4680BC70470C00002044
:10359C00D34D621080B582B000AF78607B68002B91
:1035AC0001D1012341E07B6893F83D30DBB2002B65
:1035BC0006D17B68002283F83C207868FEF7A2FADB
:1035CC007B68022283F83D207B681A687B68043391
:1035DC001946104600F05CFA7B68012283F84620FD
:1035EC007B68012283F83E207B68012283F83F2010
:1035FC007B68012283F840207B68012283F84120FC
:10360C007B68012283F842207B68012283F84320E7
:10361C007B68012283F844207B68012283F84520D3
:10362C007B68012283F83D20002318460837BD46ED
:10363C0080BD000080B485B000AF78607B6893F8E3
:10364C003D30DBB2012B01D001233AE07B68022232
:10365C0083F83D207B681B68DA687B681B6842F046
:10366C000102DA607B681B68184A93420ED07B68B3
:10367C001B68B3F1804F09D07B681B68144A9342D6
:10368C0004D07B681B68134A934211D17B681B687A
:10369C009B6803F00703FB60FB68062B10D07B686C
:1036AC001B681A687B681B6842F001021A6007E00D
:1036BC007B681B681A687B681B6842F001021A6001
:1036CC00002318461437BD4680BC7047002C0140BF
:1036DC00000400400008004080B584B000AF786062
:1036EC007B681B68DB68FB607B681B681B69BB60C5
:1036FC00BB6803F00203002B20D0FB6803F002032D
:10370C00002B1BD07B681B686FF002021A617B6870
:10371C0001221A777B681B689B6903F00303002B5B
:10372C0003D0786800F098F905E0786800F08BF920
:10373C00786800F09AF97B6800221A77BB6803F06E
:10374C000403002B20D0FB6803F00403002B1BD0D8
:10375C007B681B686FF004021A617B6802221A777F
:10376C007B681B689B6903F44073002B03D078685B
:10377C0000F072F905E0786800F065F9786800F0FF
:10378C0074F97B6800221A77BB6803F00803002BDE
:10379C0020D0FB6803F00803002B1BD07B681B6850
:1037AC006FF008021A617B6804221A777B681B6829
:1037BC00DB6903F00303002B03D0786800F04CF9AD
:1037CC0005E0786800F03FF9786800F04EF97B6806
:1037DC0000221A77BB6803F01003002B20D0FB6883
:1037EC0003F01003002B1BD07B681B686FF01002DA
:1037FC001A617B6808221A777B681B68DB6903F403
:10380C004073002B03D0786800F026F905E0786847
:10381C0000F019F9786800F028F97B6800221A7713
:10382C00BB6803F00103002B0CD0FB6803F0010311
:10383C00002B07D07B681B686FF001021A61786857
:10384C00FEF77EFABB6803F08003002B0CD0FB68FC
:10385C0003F08003002B07D07B681B686FF080029D
:10386C001A61786800F07FFABB6803F04003002B04
:10387C000CD0FB6803F04003002B07D07B681B685F
:10388C006FF040021A61786800F0F8F8BB6803F03A
:10389C002003002B0CD0FB6803F02003002B07D077
:1038AC007B681B686FF020021A61786800F052FA8E
:1038BC0000BF1037BD4680BD80B584B000AF7860C6
:1038CC0039600023FB737B6893F83C30012B01D1EA
:1038DC000223B4E07B68012283F83C207B6802223F
:1038EC0083F83D207B681B689B68BB60BB6823F03A
:1038FC007703BB60BB6823F47F43BB607B681B68AA
:10390C00BA689A603B681B68B3F5005F3ED0B3F5AC
:10391C00005F00F28780B3F5805F00F08680B3F51E
:10392C00805F7FD8702B1AD0702B7BD8602B50D037
:10393C00602B77D8502B3CD0502B73D8402B58D0C1
:10394C00402B6FD8302B64D0302B6BD8202B60D011
:10395C00202B67D8002B5CD0102B5AD062E07B68F0
:10396C0018683B6899683B685A683B68DB6800F0EC
:10397C0074F97B681B689B68BB60BB6843F077037A
:10398C00BB607B681B68BA689A604FE07B681868FC
:10399C003B6899683B685A683B68DB6800F05DF9E6
:1039AC007B681B689A687B681B6842F480429A604B
:1039BC003CE07B6818683B6859683B68DB681A46D2
:1039CC0000F0D4F87B681B685021184600F02BF9E6
:1039DC002CE07B6818683B6859683B68DB681A46C2
:1039EC0000F0F2F87B681B686021184600F01BF9A8
:1039FC001CE07B6818683B6859683B68DB681A46B2
:103A0C0000F0B4F87B681B684021184600F00BF9F5
:103A1C000CE07B681A683B681B681946104600F07E
:103A2C0002F903E00123FB7300E000BF7B68012275
:103A3C0083F83D207B68002283F83C20FB7B1846F2
:103A4C001037BD4680BD80B483B000AF786000BF36
:103A5C000C37BD4680BC704780B483B000AF786033
:103A6C0000BF0C37BD4680BC704780B483B000AF3C
:103A7C00786000BF0C37BD4680BC704780B483B003
:103A8C0000AF786000BF0C37BD4680BC70470000AB
:103A9C0080B485B000AF786039607B681B68FB60D0
:103AAC007B682F4A93420BD07B68B3F1804F07D0D1
:103ABC007B682C4A934203D07B682B4A934208D1F3
:103ACC00FB6823F07003FB603B685B68FA68134388
:103ADC00FB607B68224A93420BD07B68B3F1804F2A
:103AEC0007D07B681F4A934203D07B681E4A9342DF
:103AFC0008D1FB6823F44073FB603B68DB68FA6811
:103B0C001343FB60FB6823F080023B685B69134343
:103B1C00FB607B68FA681A603B689A687B68DA62BB
:103B2C003B681A687B689A627B680D4A934203D1A2
:103B3C003B681A697B681A637B6801225A617B684F
:103B4C001B6903F00103002B05D07B681B6923F074
:103B5C0001027B681A6100BF1437BD4680BC7047F8
:103B6C00002C0140000400400008004080B487B0E5
:103B7C0000AFF860B9607A60FB681B6A7B61FB6818
:103B8C001B6A23F00102FB681A62FB689B693B61AC
:103B9C003B6923F0F0033B617B681B013A691343DB
:103BAC003B617B6923F00A037B617A69BB68134331
:103BBC007B61FB683A699A61FB687A691A6200BF9B
:103BCC001C37BD4680BC704780B487B000AFF8602E
:103BDC00B9607A60FB681B6A7B61FB681B6A23F027
:103BEC001002FB681A62FB689B693B613B6923F41A
:103BFC0070433B617B681B033A6913433B617B69F0
:103C0C0023F0A0037B61BB681B017A6913437B61C2
:103C1C00FB683A699A61FB687A691A6200BF1C37C3
:103C2C00BD4680BC704780B485B000AF7860396009
:103C3C007B689B68FB60FB6823F07003FB603A6851
:103C4C00FB68134343F00703FB607B68FA689A60D8
:103C5C0000BF1437BD4680BC704780B487B000AF3E
:103C6C00F860B9607A603B60FB689B687B617B693C
:103C7C0023F47F437B613B681A027B681A43BB6861
:103C8C0013437A6913437B61FB687A699A6000BFBE
:103C9C001C37BD4680BC704780B485B000AF7860DF
:103CAC0039607B6893F83C30012B01D1022346E04C
:103CBC007B68012283F83C207B68022283F83D203C
:103CCC007B681B685B68FB607B681B689B68BB60E0
:103CDC00FB6823F07003FB603B681B68FA681343B6
:103CEC00FB607B681B68FA685A607B681B68164A25
:103CFC0093420ED07B681B68B3F1804F09D07B6870
:103D0C001B68124A934204D07B681B68104A93428A
:103D1C000CD1BB6823F08003BB603B685B68BA685E
:103D2C001343BB607B681B68BA689A607B6801228E
:103D3C0083F83D207B68002283F83C200023184642
:103D4C001437BD4680BC7047002C01400004004075
:103D5C000008004080B483B000AF786000BF0C371F
:103D6C00BD4680BC704780B483B000AF786000BFA4
:103D7C000C37BD4680BC704780B582B000AF786010
:103D8C007B68002B01D1012342E07B6893F8413022
:103D9C00DBB2002B06D17B68002283F840207868C8
:103DAC00FDF7D4FE7B68242283F841207B681B68D6
:103DBC00DA687B681B6822F40052DA60786800F0DD
:103DCC002BF87B681B681A697B681B6822F490428D
:103DDC001A617B681B685A697B681B6822F02A028F
:103DEC005A617B681B68DA687B681B6842F4005276
:103DFC00DA607B6800225A647B68202283F84120B9
:103E0C007B68202283F842207B6800225A630023BF
:103E1C0018460837BD4680BD80B584B000AF7860C9
:103E2C007B681B681B6923F440517B68DA687B68EC
:103E3C001B680A431A617B689A687B681B691A4382
:103E4C007B685B691343BB607B681B68DB6823F48E
:103E5C00B05323F00C037A681268B9680B43D36033
:103E6C007B681B685B6923F440717B689A697B688B
:103E7C001B680A435A617B681B682C4A934203D126
:103E8C00FFF756FBF86002E0FFF73EFBF860FA68BC
:103E9C0013469B0013449A001A447B685B689B0092
:103EAC00B2FBF3F3224AA2FB03235B091901FA6864
:103EBC0013469B0013449A001A447B685B689B0072
:103ECC00B2FBF3F21A4BA3FB02035B09642000FB69
:103EDC0003F3D31A1B013233154AA2FB03235B09EC
:103EEC0003F0F0031944FA6813469B0013449A003C
:103EFC001A447B685B689B00B2FBF3F20C4BA3FB90
:103F0C0002035B09642000FB03F3D31A1B01323359
:103F1C00074AA2FB03235B0903F00F027B681B68B3
:103F2C000A449A6000BF1037BD4680BD003801407E
:103F3C001F85EB51014B1868704700BF1C00002017
:103F4C0070B500260C4D0D4C641BA410A64209D173
:103F5C0000F05CFC00260A4D0A4C641BA410A6421F
:103F6C0005D170BD55F8043B98470136EEE755F87E
:103F7C00043B98470136F2E7E4480008E44800089F
:103F8C00E4480008E848000803460244934200D184
:103F9C00704703F8011BF9E70EB46FF0004100B550
:103FAC009CB01DAB029006900791049108480949FA
:103FBC0053F8042B0591006802A9019300F068F8EE
:103FCC000022029B1A701CB05DF804EB03B0704722
:103FDC001C0000200802FFFF2DE9F0478E68824686
:103FEC009E420C4690461F4638D88A8912F4906F30
:103FFC0032D0256809690133A5EB010965694B4489
:10400C0005EB450505EBD5756D109D4238BF1D467A
:10401C00530531D5294600F053FB064650B90C2305
:10402C004FF0FF30CAF80030A38943F04003A3815E
:10403C00BDE8F0874A46216900F0CEFAA38923F443
:10404C00906343F08003A38126614E4426603E4674
:10405C006561A5EB0905A560BE4200D93E46324616
:10406C004146206800F0C6FAA36822689B1B3244C4
:10407C000020A3602260DBE72A4600F07BFB0646AB
:10408C000028E1D15046216900F0CEFAC7E70000C4
:10409C002DE9F04F98468B8907461B060D461446B2
:1040AC009DB00ED50B6963B9402100F009FB286067
:1040BC00286120B90C233B604FF0FF30D1E0402346
:1040CC006B610023099320238DF8293030234FF0A6
:1040DC000109CDF80C80DFF8A4818DF82A30234635
:1040EC009A4613F8012B0AB1252AF9D1BAEB040B25
:1040FC000BD05B46224629463846FFF76DFF013050
:10410C0000F0AA80099A5A4409929AF80030002BC0
:10411C0000F0A28000234FF0FF32CDE905230AF115
:10412C00010A049307938DF853301A9354460522D1
:10413C0014F8011B514800F041FA049AD8B9D00682
:10414C0044BF20238DF85330110744BF2B238DF827
:10415C0053309AF800302A2B15D0544600204FF0DB
:10416C000A0C079A214611F8013B303B092B4ED91A
:10417C00B0B1079214E0A0EB080309FA03F3134360
:10418C00A2460493D2E7039B191D1B680391002BD5
:10419C00BBBF5B4242F0020207930793B8BF049285
:1041AC0023782E2B0CD163782A2B35D1039B023428
:1041BC001A1D1B680392002BB8BF4FF0FF330593F9
:1041CC00DFF8C8A003225046217800F0F7F940B17F
:1041DC004023A0EB0A0003FA00F0049B01340343D4
:1041EC00049314F8011B062225488DF8281000F0C2
:1041FC00E5F9002838D0234B1BBB039B073323F076
:10420C00070308330393099B3344099367E70C4670
:10421C0001200CFB0232A5E700234FF00A0C1946D3
:10422C0001340593204610F8012B303A092A03D9A2
:10423C00002BC5D00591C3E7044601230CFB0121DB
:10424C00F0E703AB00932A4638460F4B04A9AFF3B3
:10425C000080421C0646D6D1AB895B063FF52CAFDD
:10426C0009981DB0BDE8F08F03AB00932A46384681
:10427C00054B04A900F07CF8EBE700BFAE48000842
:10428C00B848000800000000E53F0008B4480008EA
:10429C002DE9F047164699468A680B690746934202
:1042AC00B8BF1346336091F843200C46DDF82080EC
:1042BC000AB1013333602368990642BF3368023375
:1042CC003360256815F0060506D104F1190AE36878
:1042DC0032689B1AAB4228DC94F84320131E2268E8
:1042EC0018BF012392062DD44946384604F14302E7
:1042FC00C047013020D02368E56803F00603042B87
:10430C0018BF002532684FF00006A36808BFAD1A2D
:10431C00226908BF25EAE5759342C4BF9B1AED18C4
:10432C001A34B5421AD1002008E0012352464946FE
:10433C003846C047013003D14FF0FF30BDE8F0875D
:10434C000135C4E73020E11881F843005A1C94F879
:10435C0045102244023382F84310C5E7012322465C
:10436C0049463846C0470130E6D00136D9E700004F
:10437C002DE9FF470C46277E9146782F80469A46BA
:10438C000C9904F1430207D8622F0AD8002F00F0D1
:10439C00D980582F00F0A48004F1420684F84270B2
:1043AC003AE0A7F16303152BF6D801A050F823F0DF
:1043BC001544000829440008A5430008A54300083B
:1043CC00A5430008A543000829440008A54300089C
:1043DC00A5430008A5430008A5430008374500087D
:1043EC005944000819450008A5430008A5430008D6
:1043FC0059450008A543000859440008A543000886
:10440C00A5430008214500080B6804F142061A1D5B
:10441C001B680A6084F842300123A4E02568086810
:10442C002E0600F104030AD505680B60002D03DA93
:10443C002D236D4284F843300A235E4819E015F0B1
:10444C00400F05680B6018BF2DB2EFE70B682568AD
:10445C00181D0860280601D51D6802E06906FBD509
:10446C001D886F2F0CBF08230A235248002184F8A3
:10447C0043106668002EA8BF2168A660A4BF21F077
:10448C00040121600DB9002E4DD01646B5FBF3F199
:10449C0003FB1157C75D06F8017D2F46BB420D4645
:1044AC00F4D9082B0BD12368DF0708D52369616881
:1044BC009942DEBF302306F8013C06F1FF36921B11
:1044CC0022614B4621464046CDF800A003AAFFF7D7
:1044DC00DFFE01304CD14FF0FF3004B0BDE8F08767
:1044EC00344884F845700E68236856F8045B1F0640
:1044FC000E6014D5D90744BF43F0200323601DB9C7
:10450C00236823F0200323601023AFE7236843F0D4
:10451C00200323607823284884F84530E3E75E06BF
:10452C0048BFADB2E6E71646BBE70B6826681D1D13
:10453C0060690D6035061B6801D5186002E07106D4
:10454C00FBD51880002316462361BAE70B681A1DA9
:10455C000A601E6800213046626800F02FF808B12E
:10456C00801B606063682361002384F84330A8E7F4
:10457C003246494640462369D0470130ABD02368C8
:10458C009B0713D4E068039B9842B8BF1846A4E776
:10459C000123324649464046D04701309BD0013575
:1045AC00E36803995B1AAB42F2DCEBE7002504F1FC
:1045BC001906F5E7BF480008D0480008034610B5B7
:1045CC00C9B202449342184601D1002003E004789A
:1045DC0001338C42F6D110BD0A44914200F1FF33F5
:1045EC0000D1704710B511F8014B914203F8014FFF
:1045FC00F9D110BD884210B501EB020402D98442F6
:10460C00234607D8431EA14208D011F8012B03F80A
:10461C00012FF8E7014602448A4200D110BD13F87D
:10462C00014D02F8014DF7E738B50546002943D096
:10463C0051F8043C0C1F002BB8BFE41800F0D0F864
:10464C001E4A1368104633B9636014602846BDE8EF
:10465C00384000F0CBB8A3420AD9216862189342C3
:10466C0001BF1A685B685218226063600460EDE752
:10467C001A465B680BB1A342FAD911685018A042D4
:10468C000BD120680144501883421160DED11868A8
:10469C005B68014411605360D8E702D90C232B608E
:1046AC00D4E7206821188B4201BF19685B68091890
:1046BC00216063605460C9E738BD00BFFC00002076
:1046CC00F8B5CD1C25F0030508350C2D38BF0C258D
:1046DC00002D064601DBA94203D90C2333600020D0
:1046EC00F8BD00F07DF821490A6814469CB9204FAA
:1046FC003B6823B92146304600F062F83860294601
:10470C00304600F05DF8431C23D10C233046336057
:10471C0000F06CF8E3E723685B1B17D40B2B03D971
:10472C0023601C44256004E06368A2420CBF0B604C
:10473C005360304600F05AF804F10B00231D20F0B2
:10474C000700C21ACCD01B1AA350C9E722466468D2
:10475C00CCE7C41C24F00304A042E3D0211A304659
:10476C0000F02EF80130DDD1CFE700BFFC000020B7
:10477C0000010020F8B5074614460E4621B9114633
:10478C00BDE8F840FFF79CBF22B9FFF74DFF254667
:10479C002846F8BD00F030F8A0420FD2214638462A
:1047AC00FFF78EFF05460028F2D031462246FFF770
:1047BC0013FF31463846FFF737FFE9E73546E7E7A1
:1047CC0038B50023054D044608462B60FDF72EFA3C
:1047DC00431C02D12B6803B1236038BD3C0200207E
:1047EC00014800F011B800BF44020020014800F05D
:1047FC000CB800BF4402002051F8043C181F002BD9
:10480C00BCBF0B58C018704770477047F8B500BF55
:10481C00F8BC08BC9E467047F8B500BFF8BC08BC95
:04482C009E467047ED
:1048300020204D616E75616C204D6F646520000015
:10484000202020202020202020200000526F6164A2
:1048500020583A202564202020200000526F6164F7
:1048600020593A20256420202020000054696D65DD
:104870003A202020256420004D6F64653A202020D6
:104880002564200000000000000000000102030475
:1048900006070809000000000102030402030405E2
:1048A000060708090A0B0C0D0E0F10100102232D2C
:1048B000302B2000686C4C00656667454647003029
:1048C0003132333435363738394142434445460076
:1048D0003031323334353637383961626364656676
:0448E00000000000D4
:0448E4003101000896
:0448E8000D010008B6
:1048EC0008000000060000000200000000127A0020
:1048FC000A00000010000000010000002000002051
:10490C00000000000000000000000000000000009B
:10491C00000000000000000000000000000000008B
:10492C00000000000000000000000000000000007B
:10493C00000000000000000000000000000000006B
:10494C00000000000000000000000000000000005B
:10495C00000000000000000000000000000000004B
:0400000508001D7161
:00000001FF
