:020000040800F2
:10000000005000206112000821110008271100088B
:100010002D110008331100083911000800000000FC
:100020000000000000000000000000003F11000878
:100030004B11000800000000571100086311000870
:10004000A9120008A9120008A9120008A9120008A4
:10005000A9120008A9120008A9120008A912000894
:10006000A9120008A9120008A9120008A912000884
:10007000A9120008A9120008A9120008A912000874
:10008000A9120008A9120008A9120008A912000864
:10009000A9120008A9120008A9120008A912000854
:1000A000A9120008A9120008A9120008A912000844
:1000B00071110008A9120008A9120008A91200086D
:1000C000A9120008A9120008A9120008A912000824
:1000D000A9120008A9120008A9120008A912000814
:1000E00085110008A9120008A912000800000000EC
:1000F0000000000000000000000000000000000000
:0C01000000000000000000005FF808F1A3
:10010C0010B5054C237833B9044B13B10448AFF345
:10011C0000800123237010BD1C0000200000000093
:10012C004C2B000808B5034B1BB103490348AFF334
:10013C00008008BD00000000200000204C2B0008AF
:10014C0080B500AF00F0BAFB0346012B74D13B4BDA
:10015C001B68022B26D13A4B1B683A4A1360394B69
:10016C001A68394B1B689A4205DD364B1A68374BB7
:10017C001B689A4207DC344B1A68344B1B681344D7
:10018C00304A136006E02F4B1A68304B1B68D31AA9
:10019C002D4A13602B4B1B682D4A13602A4B1B688E
:1001AC002C4A1360254B1B68032B20D1244B1B6856
:1001BC00254A1360234B1A68234B1B689A4207DCB1
:1001CC00224B1A68204B1B6813441E4A136006E02E
:1001DC001C4B1A681C4B1B68D31A1C4A1360194B16
:1001EC001B681B4A1360184B1B681A4A1360134B8D
:1001FC001B68042B20D1124B1B68144A1360114B43
:10020C001A68124B1B689A4207DC104B1A680E4B8B
:10021C001B6813440B4A136006E00A4B1A680B4B1D
:10022C001B68D31A084A1360064B1B68084A1360F4
:10023C00054B1B68074A136000BF80BD600000209F
:10024C0064000020000000200400002008000020B2
:10025C00540000205800002080B500AF144B1B68E0
:10026C00012B02D1134B00221A60114B1B68022B7D
:10027C0004D1114B05221A6000F0C4FC0C4B1B6816
:10028C00032B07D10D4B00221A600B4B06221A6070
:10029C0000F0B8FC064B1B68042B07D1084B00225E
:1002AC001A60054B07221A6000F0ACFC00BF80BD41
:1002BC0060000020440000204C0000203C00002086
:1002CC004000002080B500AF144B1B68012B02D1FD
:1002DC00134B00221A60114B1B68022B04D1114BDB
:1002EC0005221A6000F08EFC0C4B1B68032B07D107
:1002FC000D4B00221A600B4B06221A6000F082FC98
:10030C00064B1B68042B07D1084B00221A60054BC7
:10031C0007221A6000F076FC00BF80BD6000002050
:10032C0044000020500000203C0000204000002031
:10033C0080B500AF444B1B68013B032B7AD801A25C
:10034C0052F823F0610300088D030008C90300086C
:10035C00050400083C4B02221A603C4B1B683C4ACB
:10036C0013603B4B1B684FF47A7202FB03F3194684
:10037C00002000F00FFF6421022000F00BFF60E072
:10038C0000F08CFBFFF7DCFEFFF766FF314B1B68C0
:10039C00012B51D100F036FC2B4B03221A602E4B53
:1003AC001B682B4A13602A4B1B684FF47A7202FBB2
:1003BC0003F31946002000F0EDFE3DE000F0A6FB33
:1003CC00FFF7BEFEFFF748FF224B1B68012B35D110
:1003DC0000F018FC1C4B04221A60204B1B681C4AB2
:1003EC0013601B4B1B684FF47A7202FB03F3194624
:1003FC00002000F0CFFE21E000F06CFBFFF7A0FE28
:10040C00FFF72AFF134B1B68012B19D100F0FAFBE5
:10041C000D4B02221A600D4B1B680D4A13600C4BDE
:10042C001B684FF47A7202FB03F31946002000F0AC
:10043C00B1FE05E000BF04E000BF02E000BF00E039
:10044C0000BF00BF80BD00BF4C000020000000209A
:10045C00540000204401002004000020080000206B
:10046C0080B500AF724B1B68013B032B00F2D680AA
:10047C0001A252F823F000BF95040008C50400083F
:10048C003D050008B305000800F09CFB684B0322F7
:10049C001A60684B1B68684A1360674B1B684FF403
:1004AC007A7202FB03F31946012000F073FE6421FB
:1004BC00032000F06FFEB8E000F044FBFFF740FEB5
:1004CC00FFF700FF5D4B1B68012B18D100F09AFB66
:1004DC00574B05221A605A4B1B684FF47A7202FB79
:1004EC0003F31946012000F055FE564B5B68564A43
:1004FC0082FB03125211DB17D31A4F4A1360534B72
:10050C005B68012B40F08C8000F07CFB484B032295
:10051C001A60484B1B68484A1360474B1B684FF4E2
:10052C007A7202FB03F31946012000F033FE77E0E8
:10053C0000F048FBFFF704FEFFF7C4FE444B1B68BA
:10054C00012B18D100F05EFB394B06221A603C4B94
:10055C001B684FF47A7202FB03F31946012000F07A
:10056C0019FE384B5B68384A82FB03125211DB17B9
:10057C00D31A314A1360354B5B68012B52D100F012
:10058C0041FB2B4B04221A60324B1B682A4A136026
:10059C00294B1B684FF47A7202FB03F319460120B6
:1005AC0000F0F8FD3EE000F0EDFAFFF7C9FDFFF7B3
:1005BC0089FE294B1B68012B18D100F023FB1C4B27
:1005CC0007221A601E4B1B684FF47A7202FB03F36E
:1005DC001946012000F0DEFD1A4B5B681A4A82FBBB
:1005EC0003125211DB17D31A134A1360174B5B68B3
:1005FC00012B19D100F006FB0D4B02221A60174B90
:10060C001B680D4A13600C4B1B684FF47A7202FB8B
:10061C0003F31946012000F0BDFD05E000BF04E026
:10062C0000BF02E000BF00E000BF00BF80BD00BF04
:10063C005000002004000020580000203C00002046
:10064C00480000201C0100201F85EB5144010020B4
:10065C004000002008000020440000200000002082
:10066C0080B500AF264B1B78022B38D0022B45DC13
:10067C00002B02D0012B1ED040E0002000F0DAF954
:10068C000346002B35D01E4B01221A7000F0DAF80D
:10069C000346012B2DD11B4B1B680133194A1360E8
:1006AC00194B00221A60174B1B68042B21DD154BCC
:1006BC0001221A601DE0002000F0BCF90346002B5B
:1006CC0003D10F4B00221A7015E0002000F0CCF97A
:1006DC000346012B0FD10A4B02221A700BE00020AB
:1006EC0000F0A8F90346002B07D1054B00221A7025
:1006FC0003E000BF02E000BF00E000BF00BF80BD10
:10070C005C000020600000206400002080B500AF79
:10071C00254B1B78022B35D0022B42DC002B02D050
:10072C00012B1BD03DE0012000F084F90346002B87
:10073C0032D01D4B01221A7000F0A2F80346012B97
:10074C002AD11A4B1B680133184A1360174B1B68CC
:10075C00632B21DD154B00221A601DE0012000F0F7
:10076C0069F90346002B03D10F4B00221A7015E0D8
:10077C00012000F079F90346012B0FD10A4B02221C
:10078C001A700BE0012000F055F90346002B07D13D
:10079C00054B00221A7003E000BF02E000BF00E02E
:1007AC0000BF00BF80BD00BF5D00002064000020C2
:1007BC0080B500AF1C4B1B78022B24D0022B31DCF4
:1007CC00002B02D0012B0AD02CE0022000F032F9D1
:1007DC000346002B21D0144B01221A701DE002207D
:1007EC0000F028F90346002B03D10F4B00221A709E
:1007FC0015E0022000F038F90346012B0FD10A4B0B
:10080C0002221A700BE0022000F014F90346002BB0
:10081C0007D1054B00221A7003E000BF02E000BFB5
:10082C0000E000BF00BF80BD5E00002080B400AFC0
:10083C00034B01221A6000BFBD4680BC704700BF4D
:10084C008000002080B400AF064B1B68012B04D144
:10085C00044B00221A60012300E000231846BD4619
:10086C0080BC70478000002080B400AF034B012295
:10087C001A6000BFBD4680BC704700BF84000020DA
:10088C0080B400AF064B1B68012B04D1044B002233
:10089C001A60012300E000231846BD4680BC704757
:1008AC008400002080B400AF034B01221A6000BF0B
:1008BC00BD4680BC704700BF8800002080B400AFEC
:1008CC00064B1B68012B04D1044B00221A60012338
:1008DC0000E000231846BD4680BC7047880000200D
:1008EC0080B582B000AF0023FB718BE0FA79FB7905
:1008FC004949895C494AD154FB79002B08D1022122
:10090C00474800F0C1FF03461A46434B1A7016E0E5
:10091C00FB79012B08D11021414800F0B5FF0346AB
:10092C001A463D4B5A700AE0FB79022B07D1012184
:10093C003C4800F0A9FF03461A46374B9A70FB79E6
:10094C00354AD25CFB793549CB5C9A424ED1FA7967
:10095C00FB793149895C344AD154FB79324AD35CF6
:10096C00002B4CD1FB79002B02D1FFF75FFF0AE083
:10097C00FB79012B02D1FFF777FF04E0FB79022B07
:10098C0001D1FFF78FFFFB79284A32F81330632B24
:10099C000ED8FB79264AD35C002B09D1FB79234A6C
:1009AC0032F81320013291B2204A22F8131026E0BB
:1009BC00FB791F4A0121D154FB791C4A32F81330C0
:1009CC00952B09D8FB79194A32F81320013291B2D0
:1009DC00164A22F8131012E0FB79134A0121D15464
:1009EC00FB79124A642122F8131008E0FB790F4AB4
:1009FC00002122F81310FB790D4A0021D154FB7908
:100A0C000133FB71FB79022B7FF670AF00BF00BF87
:100A1C000837BD4680BD00BF6C0000207000002070
:100A2C0000080140000C0140680000207800002004
:100A3C007400002080B483B000AF0346FB71FB79D7
:100A4C00022B01D9002307E0FB79064AD35C002B6B
:100A5C000CBF01230023DBB218460C37BD4680BC0B
:100A6C00704700BF6800002080B483B000AF03461D
:100A7C00FB71FB79022B01D9FF2307E0FB79064AB6
:100A8C00D35C012B0CBF01230023DBB218460C37BF
:100A9C00BD4680BC704700BF7400002080B500AF1D
:100AAC00012208210A4800F006FF012220210848F3
:100ABC0000F001FF01221021054800F0FCFE01228C
:100ACC004FF48061024800F0F6FE00BF80BD00BF0D
:100ADC00000C014080B500AF002208210A4800F04C
:100AEC00EAFE01222021084800F0E5FE0022102138
:100AFC00054800F0E0FE01224FF48061024800F04E
:100B0C00DAFE00BF80BD00BF000C014080B500AF15
:100B1C00012208210A4800F0CEFE002220210848BC
:100B2C0000F0C9FE01221021054800F0C4FE00228D
:100B3C004FF48061024800F0BEFE00BF80BD00BFD4
:100B4C00000C014080B500AF01224FF480710A48BF
:100B5C0000F0B1FE01224FF40071074800F0ABFE2B
:100B6C0001228021054800F0A6FE01224021044804
:100B7C0000F0A1FE00BF80BD000801400010014044
:100B8C00000C014080B500AF00224FF480710A4880
:100B9C0000F091FE01224FF40071074800F08BFE2B
:100BAC0000228021054800F086FE012240210448E5
:100BBC0000F081FE00BF80BD000801400010014024
:100BCC00000C014080B500AF01224FF480710A483F
:100BDC0000F071FE00224FF40071074800F06BFE2C
:100BEC0001228021054800F066FE002240210448C5
:100BFC0000F061FE00BF80BD000801400010014004
:100C0C00000C014080B500AF00220821154800F00F
:100C1C0052FE00222021134800F04DFE002210212C
:100C2C00104800F048FE00224FF480610D4800F09F
:100C3C0042FE00224FF480710B4800F03CFE002273
:100C4C004FF40071084800F036FE0022802107485E
:100C5C0000F031FE00224021024800F02CFE00BFC3
:100C6C0080BD00BF000C0140000801400010014095
:100C7C0080B500AF00F014FB00F03EF800F0F2F885
:100C8C0000F0C6F800F078F8154801F0ADFA154BF5
:100C9C0001221A60144B01221A60144B01221A60B3
:100CAC00134B00221A60134B00221A600A210620F3
:100CBC0000F070FA4FF4FA71042000F06BFA4FF464
:100CCC00FA71052000F066FAFFF732FBFFF7C8FB5C
:100CDC00FFF7C6FCFFF71AFDFFF76AFDF4E700BF4C
:100CEC008C0000204C0000205000002060000020F0
:100CFC00640000203800002080B590B000AF07F1F0
:100D0C00180328220021184601F012FF3B1D002277
:100D1C001A605A609A60DA601A610223BB6101237F
:100D2C00BB621023FB6202237B630023BB630023A3
:100D3C00FB6307F11803184600F0F8FD0346002B7F
:100D4C0001D000F04DF90F237B600223BB60002320
:100D5C00FB604FF480633B6100237B613B1D0021F2
:100D6C00184601F063F80346002B01D000F038F967
:100D7C0000BF4037BD4680BD80B586B000AF07F1DF
:100D8C00080300221A605A609A60DA603B4600221F
:100D9C001A605A601D4B4FF080421A601B4B41F693
:100DAC003F725A60194B00229A60184B0922DA6084
:100DBC00164B00221A61154B00229A61134801F060
:100DCC00C3F90346002B01D000F00AF94FF480530D
:100DDC00BB6007F1080319460C4801F047FB0346BA
:100DEC00002B01D000F0FCF800233B6000237B605B
:100DFC003B461946054801F029FD0346002B01D05E
:100E0C0000F0EEF800BF1837BD4680BD8C00002006
:100E1C0080B500AF114B124A1A60104B4FF4E132FF
:100E2C005A600E4B00229A600C4B0022DA600B4B7E
:100E3C0000221A61094B0C225A61084B00229A615C
:100E4C00064B0022DA61054801F070FD0346002BC9
:100E5C0001D000F0C5F800BF80BD00BFD400002059
:100E6C000044004080B588B000AF07F110030022A9
:100E7C001A605A609A60DA60544B9B69534A43F08B
:100E8C0010039361514B9B6903F01003FB60FB68EB
:100E9C004E4B9B694D4A43F0200393614B4B9B692E
:100EAC0003F02003BB60BB68484B9B69474A43F087
:100EBC0004039361454B9B6903F004037B607B68DF
:100ECC00424B9B69414A43F0080393613F4B9B693A
:100EDC0003F008033B603B6800224FF448713C4828
:100EEC0000F0E9FC00224FF48F613A4800F0E3FC7B
:100EFC0000228021384800F0DEFC4FF400533B61A7
:100F0C00364B7B610023BB6107F110031946324855
:100F1C0000F036FB02233B6100237B610123BB61A4
:100F2C0007F1100319462C4800F02AFB12233B61F1
:100F3C0000237B610123BB6107F110031946244890
:100F4C0000F01EFB4FF448733B6101237B610023CF
:100F5C00BB610223FB6107F1100319461C4800F02A
:100F6C000FFB01233B6100237B610123BB6107F174
:100F7C0010031946174800F003FB4FF48F633B61D5
:100F8C0001237B610023BB610223FB6107F110038A
:100F9C001946104800F0F4FA80233B6101237B6171
:100FAC000023BB610223FB6107F1100319460A48B9
:100FBC0000F0E6FA00220021282000F0AAFA2820EE
:100FCC0000F0C3FA00BF2037BD4680BD00100240C0
:100FDC0000080140000C01400010014000001110FD
:100FEC0080B400AF72B600BFFEE7000080B485B0DD
:100FFC0000AF154B9B69144A43F001039361124BEC
:10100C009B6903F00103BB60BB680F4BDB690E4AA5
:10101C0043F08053D3610C4BDB6903F080537B604E
:10102C007B680A4B5B68FB60FB6823F0E063FB604A
:10103C00FB6843F00073FB60044AFB68536000BF1D
:10104C001437BD4680BC70470010024000000140C0
:10105C0080B584B000AF78607B681B68B3F1804FBB
:10106C0013D10C4BDB690B4A43F00103D361094BE1
:10107C00DB6903F00103FB60FB68002200211C20EC
:10108C0000F047FA1C2000F060FA00BF1037BD4694
:10109C0080BD00BF0010024080B588B000AF786002
:1010AC0007F1100300221A605A609A60DA607B68BC
:1010BC001B68154A934223D1144BDB69134A43F442
:1010CC000033D361114BDB6903F40033FB60FB6825
:1010DC000E4B9B690D4A43F0040393610B4B9B69C8
:1010EC0003F00403BB60BB680C233B6102237B61F0
:1010FC000223FB6107F110031946054800F040FA82
:10110C0000BF2037BD4680BD0044004000100240A7
:10111C000008014080B400AFFEE780B400AFFEE7EA
:10112C0080B400AFFEE780B400AFFEE780B400AF40
:10113C00FEE780B400AF00BFBD4680BC704780B4F2
:10114C0000AF00BFBD4680BC704780B400AF00BF8D
:10115C00BD4680BC704780B500AF00F0E7F800BF1B
:10116C0080BD000080B500AF024801F08FF800BFD1
:10117C0080BD00BF8C00002080B500AF4FF4005044
:10118C0000F0B2FB00BF80BD80B400AF00BFBD4615
:10119C0080BC704780B483B000AF78603960094B75
:1011AC001B683A6892FBF3F207497B6841F82320ED
:1011BC00064A7B68002142F8231000BF0C37BD465D
:1011CC0080BC7047100000201C010020440100204E
:1011DC0080B483B000AF00237B601CE0124A7B68B4
:1011EC0052F82330002B13DD0F4A7B6852F8233062
:1011FC005A1E0D497B6841F823200B4A7B6852F834
:10120C002330002B04DC094A7B68012142F82310AF
:10121C007B6801337B607B68092BDFDD00BF00BF7F
:10122C000C37BD4680BC70471C01002044010020D7
:10123C0080B582B000AF78607B681B68B3F1804FDB
:10124C0003D1FFF74DFBFFF7C3FF00BF0837BD46C7
:10125C0080BD0000FFF798FF0B480C490C4A002397
:10126C0002E0D458C4500433C4188C42F9D3094A50
:10127C00094C002301E013600432A242FBD301F0BD
:10128C0033FCFFF7F5FC7047000000201C00002029
:10129C00982B00081C00002070010020FEE70000C5
:1012AC0080B500AF084B1B68074A43F0100313606E
:1012BC00032000F023F9002000F008F8FFF796FE59
:1012CC000023184680BD00BF0020024080B582B0CC
:1012DC0000AF7860124B1A68124B1B7819464FF40A
:1012EC007A73B3FBF1F3B2FBF3F3184600F03BF95E
:1012FC000346002B01D001230EE07B680F2B0AD88C
:10130C00002279684FF0FF3000F003F9064A7B6841
:10131C001360002300E0012318460837BD4680BD4A
:10132C000C000020180000201400002080B400AF36
:10133C00054B1B781A46054B1B681344034A136074
:10134C0000BFBD4680BC7047180000206C01002017
:10135C0080B400AF024B1B681846BD4680BC70477A
:10136C006C01002080B485B000AF78607B6803F01E
:10137C000703FB600C4BDB68BB60BA684FF6FF03DE
:10138C001340BB60FB681A02BB68134343F0BF6396
:10139C0043F40033BB60044ABB68D36000BF14370E
:1013AC00BD4680BC704700BF00ED00E080B400AFCC
:1013BC00044BDB681B0A03F007031846BD4680BCD0
:1013CC00704700BF00ED00E080B483B000AF03466F
:1013DC00FB7197F90730002B0BDBFB7903F01F0235
:1013EC00064997F907305B09012000FA02F241F82F
:1013FC00232000BF0C37BD4680BC704700E100E0E5
:10140C0080B483B000AF03463960FB7197F90730A5
:10141C00002B0ADB3B68DAB20C4997F90730120152
:10142C00D2B20B4483F800230AE03B68DAB20849D5
:10143C00FB7903F00F03043B1201D2B20B441A7672
:10144C0000BF0C37BD4680BC704700BF00E100E018
:10145C0000ED00E080B489B000AFF860B9607A604C
:10146C00FB6803F00703FB61FB69C3F10703042B63
:10147C0028BF0423BB61FB690433062B02D9FB692B
:10148C00033B00E000237B614FF0FF32BB6902FAA3
:10149C0003F3DA43BB681A407B699A404FF0FF3183
:1014AC007B6901FA03F3D9437B680B40134318465D
:1014BC002437BD4680BC704780B582B000AF7860E1
:1014CC007B68013BB3F1807F01D301230FE00A4A13
:1014DC007B68013B53600F214FF0FF30FFF790FF0B
:1014EC00054B00229A60044B07221A600023184611
:1014FC000837BD4680BD00BF10E000E080B582B06B
:10150C0000AF78607868FFF72DFF00BF0837BD4645
:10151C0080BD80B586B000AF0346B9607A60FB73BE
:10152C0000237B61FFF742FF78617A68B9687869BC
:10153C00FFF790FF024697F90F3011461846FFF758
:10154C005FFF00BF1837BD4680BD80B582B000AFCD
:10155C000346FB7197F907301846FFF735FF00BFBC
:10156C000837BD4680BD80B582B000AF7860786822
:10157C00FFF7A2FF034618460837BD4680BD0000A2
:10158C0080B48BB000AF7860396000237B6200239D
:10159C003B6269E101227B6A02FA03F3FB613B685F
:1015AC001B68FA691340BB61BA69FB699A4240F047
:1015BC0058813B685B689A4A93425ED0984A934242
:1015CC0075D8984A934258D0964A93426FD8964A07
:1015DC00934252D0944A934269D8944A93424CD045
:1015EC00924A934263D8924A934246D0904A93428D
:1015FC005DD8122B2AD8122B59D801A252F823F0FD
:10160C00871600086116000873160008B516000846
:10161C00BB160008BB160008BB160008BB1600085A
:10162C00BB160008BB160008BB160008BB1600084A
:10163C00BB160008BB160008BB160008BB1600083A
:10164C00BB160008691600087D160008794A9342FB
:10165C0013D02CE03B68DB683B6229E03B68DB681D
:10166C0004333B6224E03B68DB6808333B621FE0D9
:10167C003B68DB680C333B621AE03B689B68002BD1
:10168C0002D104233B6213E03B689B68012B05D11C
:10169C0008233B627B68FA691A6109E008233B6204
:1016AC007B68FA695A6103E000233B6200E000BFEB
:1016BC00BB69FF2B01D87B6801E07B6804337B613D
:1016CC00BB69FF2B02D87B6A9B0002E07B6A083B5C
:1016DC009B003B617B691A680F213B6901FA03F39C
:1016EC00DB431A40396A3B6901FA03F31A437B69FD
:1016FC001A603B685B6803F08053002B00F0B180EC
:10170C004D4B9B694C4A43F0010393614A4B9B69D7
:10171C0003F00103BB60BB68484A7B6A9B08023339
:10172C0052F82330FB607B6A03F003039B000F220B
:10173C0002FA03F3DB43FA681340FB607B68404A10
:10174C00934213D07B683F4A93420DD07B683E4A4C
:10175C00934207D07B683D4A934201D1032306E0B4
:10176C00042304E0022302E0012300E000237A6A50
:10177C0002F0030292009340FA681343FB602F4976
:10178C007B6A9B080233FA6841F823203B685B684C
:10179C0003F48013002B06D02D4B9A682C49BB699F
:1017AC0013438B6006E02A4B9A68BB69DB432849DC
:1017BC0013408B603B685B6803F40013002B06D06E
:1017CC00234BDA682249BB691343CB6006E0204BFC
:1017DC00DA68BB69DB431E491340CB603B685B682E
:1017EC0003F40033002B06D0194B5A681849BB6917
:1017FC0013434B6006E0164B5A68BB69DB43144934
:10180C0013404B603B685B6803F48033002B21D0A2
:10181C000F4B1A680E49BB6913430B6021E000BFE4
:10182C0000003210000031100000221000002110C6
:10183C0000001210000011100010024000000140C6
:10184C0000080140000C0140001001400014014050
:10185C00000401400B4B1A68BB69DB430949134078
:10186C000B607B6A01337B623B681A687B6A22FAE5
:10187C0003F3002B7FF48EAE00BF00BF2C37BD46A8
:10188C0080BC70470004014080B485B000AF786024
:10189C000B467B807B689A687B881340002B02D0B8
:1018AC000123FB7301E00023FB73FB7B1846143709
:1018BC00BD4680BC704780B483B000AF78600B46E7
:1018CC007B8013467B707B78002B03D07A887B68F7
:1018DC001A6103E07B881A047B681A6100BF0C371D
:1018EC00BD4680BC7047000080B582B000AF034697
:1018FC00FB80084B5A69FB881340002B06D0054A25
:10190C00FB885361FB88184600F006F800BF0837C7
:10191C00BD4680BD0004014080B483B000AF0346D7
:10192C00FB8000BF0C37BD4680BC704780B586B0CD
:10193C0000AF78607B68002B01D101236CE27B68DF
:10194C001B6803F00103002B00F08780924B5B684F
:10195C0003F00C03042B0CD08F4B5B6803F00C03CF
:10196C00082B12D18C4B5B6803F48033B3F5803FAA
:10197C000BD1894B1B6803F40033002B6CD07B68B4
:10198C005B68002B68D1012346E27B685B68B3F58A
:10199C00803F06D1804B1B687F4A43F48033136031
:1019AC002EE07B685B68002B0CD17B4B1B687A4A62
:1019BC0023F480331360784B1B68774A23F480231D
:1019CC0013601DE07B685B68B3F5A02F0CD1724BE4
:1019DC001B68714A43F4802313606F4B1B686E4A7B
:1019EC0043F4803313600BE06B4B1B686A4A23F49F
:1019FC0080331360684B1B68674A23F480231360A1
:101A0C007B685B68002B13D0FFF7A2FC386108E001
:101A1C00FFF79EFC02463B69D31A642B01D90323C2
:101A2C00FAE15D4B1B6803F40033002BF0D014E09B
:101A3C00FFF78EFC386108E0FFF78AFC02463B6931
:101A4C00D31A642B01D90323E6E1534B1B6803F42F
:101A5C000033002BF0D100E000BF7B681B6803F063
:101A6C000203002B63D04C4B5B6803F00C03002B80
:101A7C000BD0494B5B6803F00C03082B1CD1464B75
:101A8C005B6803F48033002B16D1434B1B6803F0C7
:101A9C000203002B05D07B681B69012B01D00123AD
:101AAC00BAE13D4B1B6823F0F8027B685B69DB00F5
:101ABC00394913430B603AE07B681B69002B20D03B
:101ACC00364B01221A60FFF743FC386108E0FFF740
:101ADC003FFC02463B69D31A022B01D903239BE13D
:101AEC002D4B1B6803F00203002BF0D02A4B1B6814
:101AFC0023F0F8027B685B69DB00274913430B601A
:101B0C0015E0264B00221A60FFF722FC386108E032
:101B1C00FFF71EFC02463B69D31A022B01D90323A3
:101B2C007AE11D4B1B6803F00203002BF0D17B689C
:101B3C001B6803F00803002B3AD07B689B69002BD1
:101B4C0019D0174B01221A60FFF702FC386108E02C
:101B5C00FFF7FEFB02463B69D31A022B01D9032384
:101B6C005AE10D4B5B6A03F00203002BF0D001200D
:101B7C0000F0CCFA1CE00A4B00221A60FFF7E8FBDD
:101B8C0038610FE0FFF7E4FB02463B69D31A022BE6
:101B9C0008D9032340E100BF00100240000042427C
:101BAC00800442429E4B5B6A03F00203002BE9D196
:101BBC007B681B6803F00403002B00F0A680002355
:101BCC00FB75974BDB6903F08053002B0DD1944BC5
:101BDC00DB69934A43F08053D361914BDB6903F08B
:101BEC008053BB60BB680123FB758E4B1B6803F4F1
:101BFC008073002B18D18B4B1B688A4A43F480737B
:101C0C001360FFF7A5FB386108E0FFF7A1FB024664
:101C1C003B69D31A642B01D90323FDE0814B1B686C
:101C2C0003F48073002BF0D07B68DB68012B06D1AA
:101C3C007B4B1B6A7A4A43F0010313622DE07B68ED
:101C4C00DB68002B0CD1764B1B6A754A23F0010321
:101C5C001362734B1B6A724A23F0040313621CE079
:101C6C007B68DB68052B0CD16D4B1B6A6C4A43F00F
:101C7C00040313626A4B1B6A694A43F00103136243
:101C8C000BE0674B1B6A664A23F001031362644B3B
:101C9C001B6A634A23F0040313627B68DB68002B26
:101CAC0015D0FFF755FB38610AE0FFF751FB0246F0
:101CBC003B69D31A41F28832934201D90323ABE03A
:101CCC00574B1B6A03F00203002BEED014E0FFF716
:101CDC003FFB38610AE0FFF73BFB02463B69D31A36
:101CEC0041F28832934201D9032395E04C4B1B6A95
:101CFC0003F00203002BEED1FB7D012B05D1484BE9
:101D0C00DB69474A23F08053D3617B68DB69002B86
:101D1C0000F08180424B5B6803F00C03082B61D010
:101D2C007B68DB69022B46D13F4B00221A60FFF720
:101D3C000FFB386108E0FFF70BFB02463B69D31A37
:101D4C00022B01D9032367E0354B1B6803F00073AA
:101D5C00002BF0D17B681B6AB3F5803F08D1304B68
:101D6C005B6823F400327B689B682D4913434B60FE
:101D7C002B4B5B6823F474127B68196A7B685B6A73
:101D8C000B43274913434B60274B01221A60FFF783
:101D9C00DFFA386108E0FFF7DBFA02463B69D31A39
:101DAC00022B01D9032337E01D4B1B6803F0007392
:101DBC00002BF0D02FE01C4B00221A60FFF7C8FA62
:101DCC00386108E0FFF7C4FA02463B69D31A022BCC
:101DDC0001D9032320E0124B1B6803F00073002B86
:101DEC00F0D118E07B68DB69012B01D1012313E0F2
:101DFC000B4B5B68FB60FB6803F480327B681B6AEF
:101E0C009A4206D1FB6803F470127B685B6A9A42B3
:101E1C0001D0012300E0002318461837BD4680BDD1
:101E2C0000100240007000406000424280B584B057
:101E3C0000AF786039607B68002B01D10123D0E0C2
:101E4C006A4B1B6803F007033A689A4210D9674B38
:101E5C001B6823F0070265493B6813430B60634B17
:101E6C001B6803F007033A689A4201D00123B8E0DB
:101E7C007B681B6803F00203002B20D07B681B6877
:101E8C0003F00403002B05D0594B5B68584A43F40C
:101E9C00E06353607B681B6803F00803002B05D0DC
:101EAC00534B5B68524A43F460535360504B5B682E
:101EBC0023F0F0027B689B684D4913434B607B68B1
:101ECC001B6803F00103002B40D07B685B68012B7F
:101EDC0007D1474B1B6803F40033002B15D10123AA
:101EEC007FE07B685B68022B07D1414B1B6803F0DA
:101EFC000073002B09D1012373E03D4B1B6803F0E9
:101F0C000203002B01D101236BE0394B5B6823F0FA
:101F1C0003027B685B68364913434B60FFF718FA82
:101F2C00F8600AE0FFF714FA0246FB68D31A41F294
:101F3C008832934201D9032353E02D4B5B6803F0A5
:101F4C000C027B685B689B009A42EBD1274B1B68A9
:101F5C0003F007033A689A4210D2244B1B6823F013
:101F6C00070222493B6813430B60204B1B6803F0AC
:101F7C0007033A689A4201D0012332E07B681B6860
:101F8C0003F00403002B08D0194B5B6823F4E062C8
:101F9C007B68DB68164913434B607B681B6803F056
:101FAC000803002B09D0124B5B6823F460527B684A
:101FBC001B69DB000E4913434B6000F021F802460D
:101FCC000B4B5B681B0903F00F030A49CB5C22FA2D
:101FDC0003F3094A1360094B1B681846FFF776F99F
:101FEC00002318461037BD4680BD00BF00200240BC
:101FFC0000100240642B00080C000020140000208C
:10200C0080B487B000AF0023FB600023BB600023CB
:10201C007B6100237B6000233B611E4B5B68FB6094
:10202C00FB6803F00C03042B02D0082B03D027E031
:10203C00194B3B6127E0FB689B0C03F00F03174A1D
:10204C00D35C7B60FB6803F48033002B10D0114B06
:10205C005B685B0C03F00103114AD35CBB607B68CB
:10206C000D4A02FB03F2BB68B2FBF3F37B6104E0A5
:10207C007B680C4A02FB03F37B617B693B6102E0EA
:10208C00054B3B6100BF3B6918461C37BD4680BC05
:10209C00704700BF0010024000127A007C2B000831
:1020AC008C2B000800093D0080B400AF024B1B686C
:1020BC001846BD4680BC70470C00002080B500AFB0
:1020CC00FFF7F2FF0246054B5B681B0A03F00703A0
:1020DC000349CB5C22FA03F3184680BD0010024082
:1020EC00742B000880B500AFFFF7DEFF0246054BEE
:1020FC005B68DB0A03F007030349CB5C22FA03F3AA
:10210C00184680BD00100240742B000880B485B0C6
:10211C0000AF78600A4B1B680A4AA2FB03235B0AD8
:10212C007A6802FB03F3FB6000BFFB685A1EFA607F
:10213C00002BF9D100BF00BF1437BD4680BC7047DF
:10214C000C000020D34D621080B582B000AF7860D7
:10215C007B68002B01D1012341E07B6893F83D3073
:10216C00DBB2002B06D17B68002283F83C20786818
:10217C00FEF76EFF7B68022283F83D207B681A68AD
:10218C007B6804331946104600F05CFA7B68012228
:10219C0083F846207B68012283F83E207B6801226D
:1021AC0083F83F207B68012283F840207B68012262
:1021BC0083F841207B68012283F842207B6801224E
:1021CC0083F843207B68012283F844207B6801223A
:1021DC0083F845207B68012283F83D2000231846B4
:1021EC000837BD4680BD000080B485B000AF786074
:1021FC007B6893F83D30DBB2012B01D001233AE030
:10220C007B68022283F83D207B681B68DA687B6858
:10221C001B6842F00102DA607B681B68184A934223
:10222C000ED07B681B68B3F1804F09D07B681B68AC
:10223C00144A934204D07B681B68134A934211D111
:10224C007B681B689B6803F00703FB60FB68062B2D
:10225C0010D07B681B681A687B681B6842F001020F
:10226C001A6007E07B681B681A687B681B6842F081
:10227C0001021A60002318461437BD4680BC704713
:10228C00002C0140000400400008004080B584B0E0
:10229C0000AF78607B681B68DB68FB607B681B6841
:1022AC001B69BB60BB6803F00203002B20D0FB68EA
:1022BC0003F00203002B1BD07B681B686FF002023B
:1022CC001A617B6801221A777B681B689B6903F093
:1022DC000303002B03D0786800F098F905E07868C8
:1022EC0000F08BF9786800F09AF97B6800221A7775
:1022FC00BB6803F00403002B20D0FB6803F004033D
:10230C00002B1BD07B681B686FF004021A617B6882
:10231C0002221A777B681B689B6903F44073002BBD
:10232C0003D0786800F072F905E0786800F065F980
:10233C00786800F074F97B6800221A77BB6803F0A8
:10234C000803002B20D0FB6803F00803002B1BD0E4
:10235C007B681B686FF008021A617B6804221A778D
:10236C007B681B68DB6903F00303002B03D07868E0
:10237C0000F04CF905E0786800F03FF9786800F05F
:10238C004EF97B6800221A77BB6803F01003002B10
:10239C0020D0FB6803F01003002B1BD07B681B685C
:1023AC006FF010021A617B6808221A777B681B6831
:1023BC00DB6903F44073002B03D0786800F026F936
:1023CC0005E0786800F019F9786800F028F97B6866
:1023DC0000221A77BB6803F00103002B0CD0FB68BA
:1023EC0003F00103002B07D07B681B686FF0010220
:1023FC001A617868FEF71CFFBB6803F08003002BA2
:10240C000CD0FB6803F08003002B07D07B681B68A3
:10241C006FF080021A61786800F07FFABB6803F0F5
:10242C004003002B0CD0FB6803F04003002B07D0BB
:10243C007B681B686FF040021A61786800F0F8F84E
:10244C00BB6803F02003002B0CD0FB6803F02003C7
:10245C00002B07D07B681B686FF020021A6178682C
:10246C0000F052FA00BF1037BD4680BD80B584B075
:10247C0000AF786039600023FB737B6893F83C30C5
:10248C00012B01D10223B4E07B68012283F83C20AC
:10249C007B68022283F83D207B681B689B68BB60CD
:1024AC00BB6823F07703BB60BB6823F47F43BB603E
:1024BC007B681B68BA689A603B681B68B3F5005F61
:1024CC003ED0B3F5005F00F28780B3F5805F00F07B
:1024DC008680B3F5805F7FD8702B1AD0702B7BD899
:1024EC00602B50D0602B77D8502B3CD0502B73D80E
:1024FC00402B58D0402B6FD8302B64D0302B6BD85E
:10250C00202B60D0202B67D8002B5CD0102B5AD0FE
:10251C0062E07B6818683B6899683B685A683B685E
:10252C00DB6800F074F97B681B689B68BB60BB6858
:10253C0043F07703BB607B681B68BA689A604FE016
:10254C007B6818683B6899683B685A683B68DB682D
:10255C0000F05DF97B681B689A687B681B6842F425
:10256C0080429A603CE07B6818683B6859683B681D
:10257C00DB681A4600F0D4F87B681B6850211846BB
:10258C0000F02BF92CE07B6818683B6859683B68B5
:10259C00DB681A4600F0F2F87B681B68602118466D
:1025AC0000F01BF91CE07B6818683B6859683B68B5
:1025BC00DB681A4600F0B4F87B681B6840211846AB
:1025CC0000F00BF90CE07B681A683B681B68194635
:1025DC00104600F002F903E00123FB7300E000BF9A
:1025EC007B68012283F83D207B68002283F83C2025
:1025FC00FB7B18461037BD4680BD80B483B000AF5E
:10260C00786000BF0C37BD4680BC704780B483B087
:10261C0000AF786000BF0C37BD4680BC704780B4FB
:10262C0083B000AF786000BF0C37BD4680BC7047EC
:10263C0080B483B000AF786000BF0C37BD4680BC5F
:10264C007047000080B485B000AF786039607B685B
:10265C001B68FB607B682F4A93420BD07B68B3F1FD
:10266C00804F07D07B682C4A934203D07B682B4A5F
:10267C00934208D1FB6823F07003FB603B685B68F6
:10268C00FA681343FB607B68224A93420BD07B6849
:10269C00B3F1804F07D07B681F4A934203D07B680D
:1026AC001E4A934208D1FB6823F44073FB603B68DD
:1026BC00DB68FA681343FB60FB6823F080023B681D
:1026CC005B691343FB607B68FA681A603B689A6825
:1026DC007B68DA623B681A687B689A627B680D4A91
:1026EC00934203D13B681A697B681A637B680122A9
:1026FC005A617B681B6903F00103002B05D07B68D2
:10270C001B6923F001027B681A6100BF1437BD46B8
:10271C0080BC7047002C01400004004000080040C1
:10272C0080B487B000AFF860B9607A60FB681B6A50
:10273C007B61FB681B6A23F00102FB681A62FB6871
:10274C009B693B613B6923F0F0033B617B681B0198
:10275C003A6913433B617B6923F00A037B617A6915
:10276C00BB6813437B61FB683A699A61FB687A69C1
:10277C001A6200BF1C37BD4680BC704780B487B05E
:10278C0000AFF860B9607A60FB681B6A7B61FB681C
:10279C001B6A23F01002FB681A62FB689B693B61A1
:1027AC003B6923F470433B617B681B033A69134319
:1027BC003B617B6923F0A0037B61BB681B017A69D9
:1027CC0013437B61FB683A699A61FB687A691A6208
:1027DC0000BF1C37BD4680BC704780B485B000AFCD
:1027EC00786039607B689B68FB60FB6823F0700342
:1027FC00FB603A68FB68134343F00703FB607B689C
:10280C00FA689A6000BF1437BD4680BC704780B42C
:10281C0087B000AFF860B9607A603B60FB689B687A
:10282C007B617B6923F47F437B613B681A027B6885
:10283C001A43BB6813437A6913437B61FB687A695B
:10284C009A6000BF1C37BD4680BC704780B485B011
:10285C0000AF786039607B6893F83C30012B01D174
:10286C00022346E07B68012283F83C207B6802222D
:10287C0083F83D207B681B685B68FB607B681B688A
:10288C009B68BB60FB6823F07003FB603B681B68B4
:10289C00FA681343FB607B681B68FA685A607B68B4
:1028AC001B68164A93420ED07B681B68B3F1804FAD
:1028BC0009D07B681B68124A934204D07B681B6862
:1028CC00104A93420CD1BB6823F08003BB603B6879
:1028DC005B68BA681343BB607B681B68BA689A6014
:1028EC007B68012283F83D207B68002283F83C2022
:1028FC00002318461437BD4680BC7047002C01409D
:10290C00000400400008004080B483B000AF786041
:10291C0000BF0C37BD4680BC704780B483B000AF9D
:10292C00786000BF0C37BD4680BC704780B582B064
:10293C0000AF78607B68002B01D1012342E07B68FB
:10294C0093F84130DBB2002B06D17B68002283F870
:10295C0040207868FEF7A0FB7B68242283F8412096
:10296C007B681B68DA687B681B6822F40052DA60AB
:10297C00786800F02BF87B681B681A697B681B6809
:10298C0022F490421A617B681B685A697B681B6849
:10299C0022F02A025A617B681B68DA687B681B6824
:1029AC0042F40052DA607B6800225A647B68202271
:1029BC0083F841207B68202283F842207B68002228
:1029CC005A63002318460837BD4680BD80B584B0D5
:1029DC0000AF78607B681B681B6923F440517B68EF
:1029EC00DA687B681B680A431A617B689A687B68A3
:1029FC001B691A437B685B691343BB607B681B686C
:102A0C00DB6823F4B05323F00C037A681268B968BE
:102A1C000B43D3607B681B685B6923F440717B6854
:102A2C009A697B681B680A435A617B681B682C4A4D
:102A3C00934203D1FFF756FBF86002E0FFF73EFB31
:102A4C00F860FA6813469B0013449A001A447B689A
:102A5C005B689B00B2FBF3F3224AA2FB03235B09E6
:102A6C001901FA6813469B0013449A001A447B68B8
:102A7C005B689B00B2FBF3F21A4BA3FB02035B09EE
:102A8C00642000FB03F3D31A1B013233154AA2FB5B
:102A9C0003235B0903F0F0031944FA6813469B0007
:102AAC0013449A001A447B685B689B00B2FBF3F2F8
:102ABC000C4BA3FB02035B09642000FB03F3D31A4A
:102ACC001B013233074AA2FB03235B0903F00F02FD
:102ADC007B681B680A449A6000BF1037BD4680BDF6
:102AEC00003801401F85EB5170B500260C4D0D4C84
:102AFC00641BA410A64209D100F022F800260A4D4E
:102B0C000A4C641BA410A64205D170BD55F8043BB9
:102B1C0098470136EEE755F8043B98470136F2E743
:102B2C00902B0008902B0008902B0008942B000889
:102B3C0003460244934200D1704703F8011BF9E7A6
:102B4C00F8B500BFF8BC08BC9E467047F8B500BF8E
:082B5C00F8BC08BC9E4670475E
:102B64000000000000000000010203040607080939
:102B7400000000000102030402030405060708091B
:0C2B84000A0B0C0D0E0F101001020000D7
:042B90003101000807
:042B94000D01000827
:102B980005000000030000000200000000127A0097
:0C2BA8000A000000100000000100000006
:04000005080012617C
:00000001FF
